:020000040800F2
:1000000000500020F51000084511000845110008B7
:1000100045110008451100084511000800000000C6
:100020000000000000000000000000004511000872
:10003000451100080000000045110008610E00088D
:100040004511000845110008451100084511000838
:100050004511000845110008DD040008F9040008F6
:1000600015050008310500084D0500084511000878
:100070004511000845110008451100084511000808
:1000800045110008451100084511000845110008F8
:1000900045110008451100084511000869050008D0
:1000A00045110008451100084511000845110008D8
:1000B00045110008451100084511000845110008C8
:1000C00045110008451100084511000845110008B8
:1000D00045110008451100084511000845110008A8
:1000E000C505000845110008000000004511000882
:1000F0004511000845110008451100084511000888
:100100004511000845110008451100084511000877
:100110004511000845110008451100084511000867
:100120004511000845110008451100084511000857
:1001300010B5054C237833B9044B13B10448AFF321
:1001400000800123237010BD30000020000000005B
:100150009011000808B5034B1BB103490348AFF3E6
:10016000008008BD0000000034000020901100084D
:1001700080B500AF02220121002000F0B7FB02226F
:100180000221012000F0B2FB0223184680BD80B599
:1001900084B000AF0346FB710023FB731AE0FA79C9
:1001A000FB7B42FA03F3DBB203F00103BB73BB7BBF
:1001B000002B06D1FB7B01221946012000F012FB27
:1001C00005E0FB7B00221946012000F00BFBFB7BC6
:1001D0000133FB73FB7B072BE1D900BF00BF103756
:1001E000BD4680BD80B584B000AF78603960002323
:1001F000FB603AE00023FB7231E00023BB721AE09F
:1002000000220221012000F0DFFBBB7A7A68134450
:100210001B781846FFF7BBFFBB7A0833DBB201221D
:100220001946022000F0DEFA40F6C41000F0F2FD9C
:10023000BB7A0133BB72BB7A072BE1D94FF47A70DA
:1002400000F0E8FDFB7A7A6813441A78FB7A796843
:100250000B445208D2B21A70FB7A0133FB72FB7A5C
:10026000072BCAD9FB680133FB60FA683B689A42E6
:10027000C0D3022318461037BD4680BD80B584B078
:1002800000AF78600223FB737B681B78002B18D0CB
:100290007B681B78032B14D87B6818787B685B78A5
:1002A0000822194600F0C4F97B689B78002B0AD11C
:1002B0007B6818787B685B780122194600F092FA17
:1002C00001E00023FB73FB7B18461037BD4680BD61
:1002D00080B485B000AF03460A46FB711346BB717C
:1002E0000223FB730023BB73FB79032B02D800238B
:1002F000BB731CE0FB79072B05D80123BB73FB798B
:10030000043BFB7113E0FB790B2B05D80223BB7375
:10031000FB79083BFB710AE0FB790F2B05D803231F
:10032000BB73FB790C3BFB7101E00023FB73144AA8
:10033000BB7B023352F82320FB799B000F2101FA8B
:1003400003F3DB4318460E49BB7B0240023341F8FE
:1003500023200B4ABB7B023352F82320B979FB7967
:100360009B0001FA03F318460549BB7B02430233A5
:1003700041F82320FB7B18461437BD4680BC7047EC
:100380000000014080B400AF084BDB68074A43F02F
:100390000103D360054B1B68044A43F0010313605B
:1003A00002231846BD4680BC704700BF00040140D0
:1003B00080B485B000AF0346FB710223FB73FB7969
:1003C0000F2B0AD8094B1B68FA79012101FA02F2B6
:1003D0001146064A0B43136001E00023FB73FB7BCD
:1003E00018461437BD4680BC704700BF000401406A
:1003F00080B485B000AF03463960FB710223FB7304
:100400003B68002B02D10123FB7304E0FB79054913
:100410003A6841F82320FB7B18461437BD4680BC60
:10042000704700BF4C00002080B485B000AF034689
:100430000A46FB711346BB710223FB73FB790F2B3A
:1004400042D8254B1B68FA79012101FA02F2D24306
:100450001146214A0B401360BB79032B1CD0032BA0
:100460002FDC012B02D0022B0BD02AE01A4B9B6809
:10047000FA79012101FA02F21146174A0B439360FF
:1004800024E0154BDB68FA79012101FA02F21146EA
:10049000114A0B43D36019E00F4B9B68FA79012195
:1004A00001FA02F211460C4A0B4393600A4BDB68D7
:1004B000FA79012101FA02F21146074A0B43D3608F
:1004C00004E00023FB7301E00023FB73FB7B184671
:1004D0001437BD4680BC70470004014080B500AFB2
:1004E000044B1B68002B02D0024B1B68984700BFCF
:1004F00080BD00BF4C00002080B500AF044B5B689E
:10050000002B02D0024B5B68984700BF80BD00BF44
:100510004C00002080B500AF044B9B68002B02D03C
:10052000024B9B68984700BF80BD00BF4C00002075
:1005300080B500AF044BDB68002B02D0024BDB68B8
:10054000984700BF80BD00BF4C00002080B500AFC1
:10055000044B1B69002B02D0024B1B69984700BF5C
:1005600080BD00BF4C00002080B500AF144B5B691C
:10057000002B03D0124B5B6998471EE0104B9B6920
:10058000002B03D00E4B9B69984716E00C4BDB69A0
:10059000002B03D00A4BDB6998470EE0084B1B6A1F
:1005A000002B03D0064B1B6A984706E0044B5B6A9E
:1005B000002B02D0024B5B6A984700BF80BD00BF92
:1005C0004C00002080B500AF184B9B6A002B03D075
:1005D000164B9B6A984726E0144BDB6A002B03D02E
:1005E000124BDB6A98471EE0104B1B6B002B03D0AD
:1005F0000E4B1B6B984716E00C4B5B6B002B03D02C
:100600000A4B5B6B98470EE0084B9B6B002B03D0AB
:10061000064B9B6B984706E0044BDB6B002B02D02C
:10062000024BDB6B984700BF80BD00BF4C00002031
:1006300080B485B000AF0346FB710B46BB71134617
:100640007B710223FB73FB79032B7FD0032B00F319
:10065000B980012B02D0022B3CD0B3E0BB79072B31
:1006600017D85D4B1B68BA7992000F2101FA02F28C
:10067000D2431146584A0B401360574B1B68797997
:10068000BA79920001FA02F21146534A0B43136001
:100690009BE0BB790F2B1AD8BB79083BBB714E4B43
:1006A0005B68BA7992000F2101FA02F2D243114637
:1006B000494A0B405360484B5B687979BA7992009C
:1006C00001FA02F21146444A0B4353607DE00023D5
:1006D000FB737AE0BB79072B17D8404B1B68BA79BC
:1006E00092006FF00F0101FA02F211463B4A0B40F3
:1006F00013603A4B1B687979BA79920001FA02F2D9
:100700001146364A0B4313605FE0BB790F2B1AD8B2
:10071000BB79083BBB71314B5B68BA7992006FF0D3
:100720000F0101FA02F211462C4A0B4053602B4B89
:100730005B687979BA79920001FA02F21146274A88
:100740000B43536041E00023FB733EE0BB79072B72
:1007500017D8234B1B68BA7992000F2101FA02F2D5
:10076000D24311461E4A0B4013601D4B1B6879791A
:10077000BA79920001FA02F21146194A0B4313604A
:1007800023E0BB790F2B1AD8BB79083BBB71144B04
:100790005B68BA7992006FF00F0101FA02F211461C
:1007A0000F4A0B4053600E4B5B687979BA7992001F
:1007B00001FA02F211460A4A0B43536005E0002396
:1007C000FB7302E00023FB7300BFFB7B184614376A
:1007D000BD4680BC704700BF00080140000C0140CE
:1007E0000010014080B485B000AF0346FB710B469A
:1007F000BB7113467B710223FB73FB79032B46D03D
:10080000032B64DC012B02D0022B20D05FE07B792C
:10081000012B0AD1324BDB68BA79012101FA02F2CD
:1008200011462F4A0B43D36054E07B79002B0BD148
:100830002B4BDB68BA79012101FA02F2D24311464F
:10084000274A0B40D36045E00023FB7342E07B79ED
:10085000012B0AD1234BDB68BA79012101FA02F29C
:100860001146204A0B43D36034E07B79002B0BD137
:100870001C4BDB68BA79012101FA02F2D24311461E
:10088000184A0B40D36025E00023FB7322E07B79FC
:10089000012B0AD1144BDB68BA79012101FA02F26B
:1008A0001146114A0B43D36014E07B79002B0BD126
:1008B0000D4BDB68BA79012101FA02F2D2431146ED
:1008C000094A0B40D36005E00023FB7302E00023DC
:1008D000FB7300BFFB7B18461437BD4680BC7047D6
:1008E00000080140000C01400010014080B485B0B8
:1008F00000AF0346FB710B46BB7113467B710223AD
:10090000FB73BB79032B38D0032B4FDC012B02D0B8
:10091000022B19D04AE0FB79002B07D17B794FF0ED
:10092000113202FB03F2254B1A6041E0FB79012BE7
:1009300007D17B794FF0113202FB03F21F4B5A6053
:1009400036E00023FB7333E0FB79002B07D17B7982
:100950004FF0113202FB03F2194B1A6028E0FB79C9
:10096000012B07D17B794FF0113202FB03F2144BBC
:100970005A601DE00023FB731AE0FB79002B07D1BE
:100980007B794FF0113202FB03F20E4B1A600FE03D
:10099000FB79012B07D17B794FF0113202FB03F277
:1009A000084B5A6004E00023FB7301E00023FB7353
:1009B000FB7B18461437BD4680BC704700080140D9
:1009C000000C01400010014080B485B000AF034628
:1009D000FB710B46BB7113467B710223FB73BB7922
:1009E000032B00F08880032B00F3C580012B02D07D
:1009F000022B40D0BFE07B79012B09D1FB79002B82
:100A000006D1614BDB68604A43F0FF03D36031E0FD
:100A10007B79012B09D1FB79012B06D15A4BDB687D
:100A2000594A43F47F43D36024E07B79002B0DD1F6
:100A3000FB79002B0AD1544BDB68534A23F0FF03A8
:100A4000D360514B504ADB68D36013E07B79002BB5
:100A50000DD1FB79012B0AD14B4BDB684A4A23F4B9
:100A60007F43D360484B484ADB68D36002E00023F1
:100A7000FB7383E082E07B79012B09D1FB79002BAA
:100A800006D1424BDB68414A43F0FF03D36031E0BB
:100A90007B79012B09D1FB79012B06D13B4BDB681C
:100AA0003A4A43F47F43D36024E07B79002B0DD195
:100AB000FB79002B0AD1354BDB68344A23F0FF0366
:100AC000D360324B314ADB68D36013E07B79002B73
:100AD0000DD1FB79012B0AD12C4BDB682B4A23F477
:100AE0007F43D360294B294ADB68D36002E00023AF
:100AF000FB7343E042E07B79012B09D1FB79002BAA
:100B000006D1234BDB68224A43F0FF03D36031E078
:100B10007B79012B09D1FB79012B06D11C4BDB68BA
:100B20001B4A43F47F43D36024E07B79002B0DD133
:100B3000FB79002B0AD1164BDB68154A23F0FF0323
:100B4000D360134B124ADB68D36013E07B79002B30
:100B50000DD1FB79012B0AD10D4BDB680C4A23F434
:100B60007F43D3600A4B0A4ADB68D36002E000236C
:100B7000FB7303E002E00023FB7300BFFB7B18461E
:100B80001437BD4680BC704700080140000C01408E
:100B90000010014080B400AF034B044A1A600223E6
:100BA0001846BD4680BC70470CED00E00005FA0514
:100BB00080B485B000AF0346FB710223FB73FB7961
:100BC0001F2B05D8FB7901229A400B4B1A600DE0D0
:100BD000FB793F2B08D8FB79203BFB71FB79012285
:100BE0009A40054B5A6001E00023FB73FB7B1846DB
:100BF0001437BD4680BC704700E100E080B485B08A
:100C000000AF0346FB710223FB73FB791F2B06D851
:100C1000FB7901229A400C4BC3F880210EE0FB794E
:100C20003F2B09D8FB79203BFB71FB7901229A40CD
:100C3000054BC3F8842101E00023FB73FB7B1846BE
:100C40001437BD4680BC704700E100E080B485B039
:100C500000AF0346FB710B46BB7113467B71022349
:100C6000FB73FB79502B3DD8224AFB79134493F850
:100C70000033DAB21F49FB7902F00F02D2B20B4403
:100C800083F80023BB79032B29D87B79032B26D843
:100C9000184AFB79134493F80033DBB25AB27B79DC
:100CA0001B015BB2134359B2124AFB79C9B2134418
:100CB0000A4683F800230F4AFB79134493F8003364
:100CC000DBB25AB2BB799B015BB2134359B2094AFA
:100CD000FB79C9B213440A4683F8002304E00023D9
:100CE000FB7301E00023FB73FB7B18461437BD4602
:100CF00080BC704700E100E080B400AF1B4B1B6874
:100D00001A4A43F00103136000BF184B1B685B08CD
:100D100003F00103002BF8D0144B5B68134A23F057
:100D200001035360114B5B68104A23F0F0035360DA
:100D30000E4B0E4A5B6853600C4B5B680B4A23F406
:100D4000E0635360094B094A5B685360074B5B687B
:100D5000064A23F460535360044B044A5B685360B3
:100D600002231846BD4680BC704700BF00100240F9
:100D700080B485B000AF0346FB710223FB73FB799F
:100D80001F2B0AD81A4B5B69FA79012101FA02F28A
:100D90001146174A0B43536123E0FB793F2B0DD8D3
:100DA000FB79203BFB71124BDB69FA79012101FAD7
:100DB00002F211460E4A0B43D36112E0FB795F2B1E
:100DC0000DD8FB79403BFB71094B9B69FA790121F6
:100DD00001FA02F21146064A0B43936101E0002337
:100DE000FB73FB7B18461437BD4680BC704700BFC1
:100DF0000010024080B400AF054B1B68044A23F08A
:100E00000403136002231846BD4680BC704700BF30
:100E100010E000E080B483B000AF78600F4A7B68D8
:100E200053600E4B1B680D4A43F00103136000BF73
:100E30000A4B1B681B0C03F00103002BF8D0074B77
:100E40001B68064A23F001031360044B00229A60DA
:100E5000022318460C37BD4680BC704710E000E006
:100E600080B582B000AF0023FB71134B1B78012BC0
:100E70000ED1124B1B68114A23F0020313600F4B73
:100E80001B680E4A23F0010313600C4B00229A608A
:100E90000B4B1B68002B02D0094B1B689847074B74
:100EA0001B681B0CDBB203F00103DBB2FB7100BF5C
:100EB0000837BD4680BD00BF9000002010E000E074
:100EC0008C00002080B586B000AF02233B74002365
:100ED0007B740023BB746D4A07F10C031268114642
:100EE00019800233120C1A70694A07F1080312685C
:100EF000114619800233120C1A70664A3B1D1268A3
:100F0000114619800233120C1A70FFF7F5FE4220C9
:100F1000FFF72EFF4320FFF72BFF4020FFF728FFAE
:100F200007F110031846FFF7A9F907F10C0318465B
:100F3000FFF7A4F907F108031846FFF79FF93B1DD7
:100F40001846FFF79BF9FFF713F901210020FFF77F
:100F5000BFF901210120FFF7BBF9FFF71BFE0122BA
:100F600000210620FFF772FE012201210720FFF772
:100F70006DFE012202211720FFF768FE01220321E6
:100F80002820FFF763FE44490020FFF731FA0620CE
:100F9000FFF70EFE0720FFF70BFE1720FFF708FEF6
:100FA0002820FFF705FE3D490120FFF721FA3A49C5
:100FB0000920FFF71DFA3A490A20FFF719FAFFF74F
:100FC000E1F902210120FFF72FFA02210920FFF7A2
:100FD0002BFA02210A20FFF727FA0120FFF7E8F990
:100FE0000920FFF7E5F90A20FFF7E2F9FFF702FF12
:100FF0002C4B1B78012B11D10023FB750AE0FB7DE4
:10100000DB00294A134405211846FFF7EBF8FB7D66
:101010000133FB75FB7D052BF1D9E9E7214B1B78EB
:10102000022B1BD10023BB7514E000237B750BE062
:10103000BB7DDB001C4A13447A7D11461846FFF73E
:10104000D1F87B7D32337B757B7DC72BF0D9BB7D9F
:101050000133BB75BB7D052BE7D9C9E7114B1B7865
:10106000032BC5D10023FB74FB7C052BC0D8C82300
:101070003B75FB7CDB000C4A13443A7D1146184655
:10108000FFF7B0F83B7D323B3B75F2E7A811000853
:10109000AC110008B0110008AD100008DD10000808
:1010A000C5100008910000200000002080B500AFAE
:1010B000034B01221A700620FFF7A0FD00BF80BD80
:1010C0009100002080B500AF034B03221A70282046
:1010D000FFF794FD00BF80BD9100002080B500AFF8
:1010E000034B00221A700720FFF788FD00BF80BD68
:1010F000910000200D488546AFF300800C480D4953
:101100000D4A002302E0D458C4500433C4188C4262
:10111000F9D30A4A0A4C002301E013600432A242C8
:10112000FBD300F011F8FFF7CDFEFEE700500020E2
:101130000000002030000020BC110008300000201A
:1011400094000020FEE7000070B500260C4D0D4C09
:10115000641BA410A64209D100F01AF800260A4D1B
:101160000A4C641BA410A64205D170BD55F8043B7F
:1011700098470136EEE755F8043B98470136F2E709
:10118000B4110008B4110008B4110008B811000827
:10119000F8B500BFF8BC08BC9E467047F8B500BF64
:0811A000F8BC08BC9E46704734
:0C11A8000201000001090000010A000023
:0411B40055010008D9
:0411B80031010008F9
:1011BC00002424243C242400002424243C2418004F
:1011CC0000001C201804380000001C2018043800F3
:1011DC00002424243C241800000024342C24000077
:04000005080010F5EA
:00000001FF
