:020000040800F2
:1000000000500020C10D0008110E0008110E00085C
:10001000110E0008110E0008110E0008000000006B
:10002000000000000000000000000000110E0008A9
:10003000110E000800000000110E0008450B00081A
:10004000110E0008110E0008110E0008110E000814
:10005000110E0008110E0008B5020008D1020008B8
:10006000ED0200080903000825030008110E00082E
:10007000110E0008110E0008110E0008110E0008E4
:10008000110E0008110E0008110E0008110E0008D4
:10009000110E0008110E0008110E0008410300089F
:1000A000110E0008110E0008110E0008110E0008B4
:1000B000110E0008110E0008110E0008110E0008A4
:1000C000110E0008110E0008110E0008110E000894
:1000D000110E0008110E0008110E0008110E000884
:1000E0009D030008110E000800000000110E00081A
:1000F000110E0008110E0008110E0008110E000864
:10010000110E0008110E0008110E0008110E000853
:10011000110E0008110E0008110E0008110E000843
:10012000110E0008110E0008110E0008110E000833
:1001300010B5054C237833B9044B13B10448AFF321
:1001400000800123237010BD00000020000000008B
:100150005C0E000808B5034B1BB103490348AFF31D
:10016000008008BD00000000040000205C0E0008B4
:1001700080B582B000AF03460A46FB711346BB71DF
:10018000B979FB790122184600F018FA02231846C3
:100190000837BD4680BD80B582B000AF03460A4631
:1001A000FB711346BB71B979FB790022184600F048
:1001B00005FA022318460837BD4680BD80B584B0D5
:1001C00000AF78600223FB737B681B78002B18D08C
:1001D0007B681B78032B14D87B6818787B685B7866
:1001E0000822194600F010F97B689B78002B0AD191
:1001F0007B6818787B685B780122194600F0DEF98D
:1002000001E00023FB73FB7B18461037BD4680BD21
:1002100080B400AF084BDB68074A43F00103D360AA
:10022000054B1B68044A43F0010313600223184680
:10023000BD4680BC704700BF0004014080B485B05B
:1002400000AF03463960FB710223FB733B68002B50
:1002500002D10123FB7304E0FB7905493A6841F8B8
:100260002320FB7B18461437BD4680BC704700BF77
:100270001C00002080B485B000AF0346FB71022350
:10028000FB73FB790F2B0AD8094B5B69FA790121C3
:1002900001FA02F21146064A0B43536101E00023C2
:1002A000FB73FB7B18461437BD4680BC704700BF0C
:1002B0000004014080B500AF044B1B68002B02D046
:1002C000024B1B68984700BF80BD00BF1C00002088
:1002D00080B500AF044B5B68002B02D0024B5B681B
:1002E000984700BF80BD00BF1C00002080B500AF54
:1002F000044B9B68002B02D0024B9B68984700BFC1
:1003000080BD00BF1C00002080B500AF044BDB683F
:10031000002B02D0024BDB68984700BF80BD00BFB6
:100320001C00002080B500AF044B1B69002B02D0DD
:10033000024B1B69984700BF80BD00BF1C00002016
:1003400080B500AF144B5B69002B03D0124B5B6987
:1003500098471EE0104B9B69002B03D00E4B9B6906
:10036000984716E00C4BDB69002B03D00A4BDB6986
:1003700098470EE0084B1B6A002B03D0064B1B6A04
:10038000984706E0044B5B6A002B02D0024B5B6A85
:10039000984700BF80BD00BF1C00002080B500AFA3
:1003A000184B9B6A002B03D0164B9B6A984726E09C
:1003B000144BDB6A002B03D0124BDB6A98471EE01C
:1003C000104B1B6B002B03D00E4B1B6B984716E09A
:1003D0000C4B5B6B002B03D00A4B5B6B98470EE01A
:1003E000084B9B6B002B03D0064B9B6B984706E09A
:1003F000044BDB6B002B02D0024BDB6B984700BF3A
:1004000080BD00BF1C00002080B485B000AF034653
:10041000FB710B46BB7113467B710223FB73FB79A7
:10042000032B7FD0032B00F3B980012B02D0022BCA
:100430003CD0B3E0BB79072B17D85D4B1B68BA796A
:1004400092000F2101FA02F2D2431146584A0B40A2
:100450001360574B1B687979BA79920001FA02F25E
:100460001146534A0B4313609BE0BB790F2B1AD8FC
:10047000BB79083BBB714E4B5B68BA7992000F2188
:1004800001FA02F2D2431146494A0B405360484BED
:100490005B687979BA79920001FA02F21146444A0E
:1004A0000B4353607DE00023FB737AE0BB79072B9D
:1004B00017D8404B1B68BA7992006FF00F0101FA10
:1004C00002F211463B4A0B4013603A4B1B687979A4
:1004D000BA79920001FA02F21146364A0B431360D0
:1004E0005FE0BB790F2B1AD8BB79083BBB71314B4E
:1004F0005B68BA7992006FF00F0101FA02F21146BF
:100500002C4A0B4053602B4B5B687979BA79920087
:1005100001FA02F21146274A0B43536041E00023DF
:10052000FB733EE0BB79072B17D8234B1B68BA79C6
:1005300092000F2101FA02F2D24311461E4A0B40EB
:1005400013601D4B1B687979BA79920001FA02F2A7
:100550001146194A0B43136023E0BB790F2B1AD8BD
:10056000BB79083BBB71144B5B68BA7992006FF0A2
:100570000F0101FA02F211460F4A0B4053600E4B75
:100580005B687979BA79920001FA02F211460A4A57
:100590000B43536005E00023FB7302E00023FB7371
:1005A00000BFFB7B18461437BD4680BC704700BFB8
:1005B00000080140000C01400010014080B485B0EB
:1005C00000AF0346FB710B46BB7113467B710223E0
:1005D000FB73FB79032B46D0032B64DC012B02D089
:1005E000022B20D05FE07B79012B0AD1324BDB68F4
:1005F000BA79012101FA02F211462F4A0B43D36066
:1006000054E07B79002B0BD12B4BDB68BA790121AD
:1006100001FA02F2D2431146274A0B40D36045E06B
:100620000023FB7342E07B79012B0AD1234BDB686B
:10063000BA79012101FA02F21146204A0B43D36034
:1006400034E07B79002B0BD11C4BDB68BA7901219C
:1006500001FA02F2D2431146184A0B40D36025E05A
:100660000023FB7322E07B79012B0AD1144BDB685A
:10067000BA79012101FA02F21146114A0B43D36003
:1006800014E07B79002B0BD10D4BDB68BA7901218B
:1006900001FA02F2D2431146094A0B40D36005E049
:1006A0000023FB7302E00023FB7300BFFB7B1846B3
:1006B0001437BD4680BC704700080140000C014063
:1006C0000010014080B485B000AF0346FB710B46BB
:1006D000BB7113467B710223FB73BB79032B38D0AC
:1006E000032B4FDC012B02D0022B19D04AE0FB79FF
:1006F000002B07D17B794FF0113202FB03F2254B1F
:100700001A6041E0FB79012B07D17B794FF0113260
:1007100002FB03F21F4B5A6036E00023FB7333E009
:10072000FB79002B07D17B794FF0113202FB03F2EA
:10073000194B1A6028E0FB79012B07D17B794FF028
:10074000113202FB03F2144B5A601DE00023FB73CD
:100750001AE0FB79002B07D17B794FF0113202FBB5
:1007600003F20E4B1A600FE0FB79012B07D17B7966
:100770004FF0113202FB03F2084B5A6004E00023F1
:10078000FB7301E00023FB73FB7B18461437BD4667
:1007900080BC704700080140000C0140001001407F
:1007A00080B485B000AF0346FB710B46BB711346A6
:1007B0007B710223FB73BB79032B00F08880032B32
:1007C00000F3C580012B02D0022B40D0BFE07B7923
:1007D000012B09D1FB79002B06D1614BDB68604A04
:1007E00043F0FF03D36031E07B79012B09D1FB7922
:1007F000012B06D15A4BDB68594A43F47F43D3603F
:1008000024E07B79002B0DD1FB79002B0AD1544BCE
:10081000DB68534A23F0FF03D360514B504ADB6837
:10082000D36013E07B79002B0DD1FB79012B0AD12A
:100830004B4BDB684A4A23F47F43D360484B484A1A
:10084000DB68D36002E00023FB7383E082E07B7906
:10085000012B09D1FB79002B06D1424BDB68414AC1
:1008600043F0FF03D36031E07B79012B09D1FB79A1
:10087000012B06D13B4BDB683A4A43F47F43D360FC
:1008800024E07B79002B0DD1FB79002B0AD1354B6D
:10089000DB68344A23F0FF03D360324B314ADB6814
:1008A000D36013E07B79002B0DD1FB79012B0AD1AA
:1008B0002C4BDB682B4A23F47F43D360294B294A16
:1008C000DB68D36002E00023FB7343E042E07B7906
:1008D000012B09D1FB79002B06D1234BDB68224A7F
:1008E00043F0FF03D36031E07B79012B09D1FB7921
:1008F000012B06D11C4BDB681B4A43F47F43D360BA
:1009000024E07B79002B0DD1FB79002B0AD1164B0B
:10091000DB68154A23F0FF03D360134B124ADB68F0
:10092000D36013E07B79002B0DD1FB79012B0AD129
:100930000D4BDB680C4A23F47F43D3600A4B0A4A11
:10094000DB68D36002E00023FB7303E002E00023D6
:10095000FB7300BFFB7B18461437BD4680BC704755
:1009600000080140000C01400010014080B400AFBD
:10097000034B044A1A6002231846BD4680BC7047E8
:100980000CED00E00006FA0580B485B000AF034628
:10099000FB710223FB73FB791F2B05D8FB79012226
:1009A0009A400B4B1A600DE0FB793F2B08D8FB797E
:1009B000203BFB71FB7901229A40054B5A6001E014
:1009C0000023FB73FB7B18461437BD4680BC704781
:1009D00000E100E080B400AF1B4B1B681A4A43F0F3
:1009E0000103136000BF184B1B685B0803F0010391
:1009F000002BF8D0144B5B68134A23F001035360BB
:100A0000114B5B68104A23F0F00353600E4B0E4A03
:100A10005B6853600C4B5B680B4A23F4E0635360E4
:100A2000094B094A5B685360074B5B68064A23F42D
:100A300060535360044B044A5B68536002231846BA
:100A4000BD4680BC704700BF0010024080B485B036
:100A500000AF0346FB710223FB73FB791F2B0AD8FF
:100A60001A4B5B69FA79012101FA02F21146174A21
:100A70000B43536123E0FB793F2B0DD8FB79203BDF
:100A8000FB71124BDB69FA79012101FA02F211467E
:100A90000E4A0B43D36112E0FB795F2B0DD8FB7933
:100AA000403BFB71094B9B69FA79012101FA02F283
:100AB0001146064A0B43936101E00023FB73FB7B65
:100AC00018461437BD4680BC704700BF0010024076
:100AD00080B400AF054B1B68044A23F00403136085
:100AE00002231846BD4680BC704700BF10E000E0FE
:100AF00080B483B000AF7860114A7B684FF47A719C
:100B000001FB03F353600E4B1B680D4A43F00103D6
:100B1000136000BF0A4B1B681B0C03F00103002B82
:100B2000F8D0074B1B68064A23F001031360044BFF
:100B300000229A60022318460C37BD4680BC7047DD
:100B400010E000E080B582B000AF0023FB71134BD2
:100B50001B78012B0ED1124B1B68114A23F00203A4
:100B600013600F4B1B680E4A23F0010313600C4BFC
:100B700000229A600B4B1B68002B02D0094B1B68AC
:100B80009847074B1B681B0CDBB203F00103DBB279
:100B9000FB7100BF0837BD4680BD00BF600000206C
:100BA00010E000E05C00002080B586B000AF0123BB
:100BB0003B7100237B710023BB71FFF70BFF4220C9
:100BC000FFF744FF4320FFF741FF022202210120EB
:100BD000FFF778FD3B1D1846FFF7F0FA6249002049
:100BE000FFF72CFBFFF7C2FE0620FFF7CDFEFFF755
:100BF0000FFBFFF76DFF5D4B1B78012B41D10023ED
:100C0000FB753AE000233B6131E03B69DBB208331E
:100C1000DBB219460220FFF7ABFAC820FFF768FFE6
:100C20003B69DBB20833DBB219460220FFF7B3FAA7
:100C30003B69072B18D13B690733FB6011E0FB6868
:100C4000DBB219460220FFF793FAC820FFF750FFE6
:100C5000FB68DBB219460220FFF79DFAFB68013BF7
:100C6000FB60FB68072BEADC3B6901333B613B69B6
:100C7000072BCADDFB7D0133FB75FB7D032BC1D93F
:100C8000B9E73A4B1B78022B42D10023FB723BE0C1
:100C90000023BB7232E0BB7AC3F10B03DBB219460F
:100CA0000220FFF765FABB7A0C33DBB2194602204B
:100CB000FFF75EFAC820FFF71BFFBB7A032B1AD1A0
:100CC00000237B7214E07B7AC3F10F03DBB2194679
:100CD0000220FFF760FA7B7A0833DBB21946022064
:100CE000FFF759FAC820FFF703FF7B7A01337B72C5
:100CF0007B7A032BE7D9BB7A0133BB72BB7A032B18
:100D0000C9D9FB7A0133FB72FB7A032BC0D972E796
:100D1000164B1B78032B1BD100233B7214E00122DE
:100D200002210120FFF73CFD4FF4FA70FFF7E0FECF
:100D3000002202210120FFF733FD4FF4FA70FFF784
:100D4000D7FE3B7A01333B723B7A072BE7D952E758
:100D5000064B1B78002B7FF44EAF002202210120AE
:100D6000FFF71EFD47E700BF710D0008610000207E
:100D700080B500AF114B1B78002B03D10F4B012224
:100D80001A7016E00D4B1B78012B03D10B4B02227E
:100D90001A700EE0094B1B78022B03D1074B03227C
:100DA0001A7006E0054B1B78032B02D1034B00227F
:100DB0001A700020FFF75EFA00BF80BD61000020BE
:100DC0000D488546AFF300800C480D490D4A0023BD
:100DD00002E0D458C4500433C4188C42F9D30A4AF0
:100DE0000A4C002301E013600432A242FBD300F05E
:100DF00011F8FFF7D9FEFEE70050002000000020A8
:100E0000000000207C0E000800000020640000208C
:100E1000FEE7000070B500260C4D0D4C641BA410BD
:100E2000A64209D100F01AF800260A4D0A4C641BAC
:100E3000A410A64205D170BD55F8043B9847013671
:100E4000EEE755F8043B98470136F2E7740E0008C8
:100E5000740E0008740E0008780E0008F8B500BF84
:100E6000F8BC08BC9E467047F8B500BFF8BC08BC8B
:040E70009E467047E3
:040E7400550100081C
:040E7800310100083C
:0400000508000DC121
:00000001FF
