:020000040800F2
:1000000000500020E50D0008350E0008350E0008F0
:10001000350E0008350E0008350E000800000000FF
:10002000000000000000000000000000350E000885
:10003000350E000800000000350E0008610B0008B6
:10004000350E0008350E0008350E0008350E000884
:10005000350E0008350E0008E5020008010300080F
:100060001D03000839030008550300082102000899
:100070003D020008590200087502000891020008BC
:10008000AD020008C9020008F5010008350E00089D
:10009000350E0008350E0008350E00087103000803
:1000A000350E0008350E0008350E0008350E000824
:1000B000350E0008350E0008350E0008350E000814
:1000C000350E0008350E0008350E0008090A000834
:1000D000B50A0008C50B0008750C0008250D0008BE
:1000E000CD030008350E000800000000350E0008A2
:1000F000350E0008350E0008350E0008350E0008D4
:10010000350E0008350E0008350E0008350E0008C3
:10011000350E0008350E0008350E0008350E0008B3
:10012000350E0008350E0008350E0008350E0008A3
:1001300010B5054C237833B9044B13B10448AFF321
:1001400000800123237010BD140000200000000077
:10015000800E000808B5034B1BB103490348AFF3F9
:10016000008008BD0000000018000020800E00087C
:1001700080B582B000AF00F0C9FB422000F002FC65
:10018000432000F0FFFB442000F0FCFB0222002192
:10019000002000F051F902220121002000F04CF96A
:1001A00000220221002000F047F90422082101204A
:1001B00000F042F908220021012000F03DF901225F
:1001C0000021002000F012FAFB1D1A460021002039
:1001D00000F090FAFB791A460021002000F006FAA0
:1001E0000021002000F0CEFA01220021002000F0C2
:1001F00023F9FEE780B500AF074B1B68002B08D042
:10020000064B1B685B0803F00103002B024B1B68C5
:10021000984700BF80BD00BF30000020002401408F
:1002200080B500AF044B1B68002B02D0024B1B684B
:10023000984700BF80BD00BF3400002080B500AFEC
:10024000044B5B68002B02D0024B5B68984700BFF1
:1002500080BD00BF3400002080B500AF044B9B6818
:10026000002B02D0024B9B68984700BF80BD00BFA7
:100270003400002080B500AF044BDB68002B02D0B7
:10028000024BDB68984700BF80BD00BF34000020F0
:1002900080B500AF044B1B69002B02D0024B1B69D9
:1002A000984700BF80BD00BF3400002080B500AF7C
:1002B000044B5B69002B02D0024B5B69984700BF7F
:1002C00080BD00BF3400002080B500AF044B9B69A7
:1002D000002B02D0024B9B69984700BF80BD00BF36
:1002E0003400002080B500AF044B1B68002B02D007
:1002F000024B1B68984700BF80BD00BF5000002024
:1003000080B500AF044B5B68002B02D0024B5B68EA
:10031000984700BF80BD00BF5000002080B500AFEF
:10032000044B9B68002B02D0024B9B68984700BF90
:1003300080BD00BF5000002080B500AF044BDB68DB
:10034000002B02D0024BDB68984700BF80BD00BF86
:100350005000002080B500AF044B1B69002B02D079
:10036000024B1B69984700BF80BD00BF50000020B2
:1003700080B500AF144B5B69002B03D0124B5B6957
:1003800098471EE0104B9B69002B03D00E4B9B69D6
:10039000984716E00C4BDB69002B03D00A4BDB6956
:1003A00098470EE0084B1B6A002B03D0064B1B6AD4
:1003B000984706E0044B5B6A002B02D0024B5B6A55
:1003C000984700BF80BD00BF5000002080B500AF3F
:1003D000184B9B6A002B03D0164B9B6A984726E06C
:1003E000144BDB6A002B03D0124BDB6A98471EE0EC
:1003F000104B1B6B002B03D00E4B1B6B984716E06A
:100400000C4B5B6B002B03D00A4B5B6B98470EE0E9
:10041000084B9B6B002B03D0064B9B6B984706E069
:10042000044BDB6B002B02D0024BDB6B984700BF09
:1004300080BD00BF5000002080B485B000AF0346EF
:10044000FB710B46BB7113467B710223FB73FB7977
:10045000022B7FD0022B00F3B980002B02D0012B9E
:100460003CD0B3E0BB79072B17D85D4B1B68BA793A
:1004700092000F2101FA02F2D2431146584A0B4072
:100480001360574B1B687979BA79920001FA02F22E
:100490001146534A0B4313609BE0BB790F2B1AD8CC
:1004A000BB79083BBB714E4B5B68BA7992000F2158
:1004B00001FA02F2D2431146494A0B405360484BBD
:1004C0005B687979BA79920001FA02F21146444ADE
:1004D0000B4353607DE00023FB737AE0BB79072B6D
:1004E00017D8404B1B68BA7992000F2101FA02F22B
:1004F000D24311463B4A0B4013603A4B1B68797953
:10050000BA79920001FA02F21146364A0B4313609F
:100510005FE0BB790F2B1AD8BB79083BBB71314B1D
:100520005B68BA7992000F2101FA02F2D2431146B8
:100530002C4A0B4053602B4B5B687979BA79920057
:1005400001FA02F21146274A0B43536041E00023AF
:10055000FB733EE0BB79072B17D8234B1B68BA7996
:1005600092000F2101FA02F2D24311461E4A0B40BB
:1005700013601D4B1B687979BA79920001FA02F277
:100580001146194A0B43136023E0BB790F2B1AD88D
:10059000BB79083BBB71144B5B68BA7992006FF072
:1005A0000F0101FA02F211460F4A0B4053600E4B45
:1005B0005B687979BA79920001FA02F211460A4A27
:1005C0000B43536005E00023FB7302E00023FB7341
:1005D00000BFFB7B18461437BD4680BC704700BF88
:1005E00000080140000C01400010014080B485B0BB
:1005F00000AF0346FB710B46BB7113467B710223B0
:10060000FB73FB79022B46D0022B64DC002B02D05B
:10061000012B20D05FE07B79012B0AD1324BDB68C4
:10062000BA79012101FA02F211462F4A0B43D36035
:1006300054E07B79002B0BD12B4BDB68BA7901217D
:1006400001FA02F2D2431146274A0B40D36045E03B
:100650000023FB7342E07B79012B0AD1234BDB683B
:10066000BA79012101FA02F21146204A0B43D36004
:1006700034E07B79002B0BD11C4BDB68BA7901216C
:1006800001FA02F2D2431146184A0B40D36025E02A
:100690000023FB7322E07B79012B0AD1144BDB682A
:1006A000BA79012101FA02F21146114A0B43D360D3
:1006B00014E07B79002B0BD10D4BDB68BA7901215B
:1006C00001FA02F2D2431146094A0B40D36005E019
:1006D0000023FB7302E00023FB7300BFFB7B184683
:1006E0001437BD4680BC704700080140000C014033
:1006F0000010014080B485B000AF03463A60FB7142
:100700000B46BB710223FB73FB79022B1ED0022B1D
:1007100028DC002B02D0012B0CD023E0164B9A686A
:10072000BB7922FA03F3DBB203F00103DAB23B68D0
:100730001A701AE0114B9A68BB7922FA03F3DBB204
:1007400003F00103DAB23B681A700EE00C4B9A68B2
:10075000BB7922FA03F3DBB203F00103DAB23B68A0
:100760001A7002E00023FB7300BFFB7B18461437AE
:10077000BD4680BC704700BF00080140000C01402E
:100780000010014080B485B000AF03460A46FB71FB
:100790001346BB710223FB73FB79022B6DD0022B36
:1007A00000F3A480002B02D0012B2DD09EE0544BEF
:1007B0009B69534A43F480339361514B9B69504A80
:1007C00023F4803393614E4B9B694D4A43F480334D
:1007D00093614B4B9B691B0CDBB203F00103BB73B2
:1007E000474B9B691B0CDBB203F00103BB73444B0B
:1007F0009B691B0C03F00103002B02D00223FB7347
:1008000077E00323FB7374E03E4B9B69BA790121C7
:1008100001FA02F211463B4A0B439361394B9B6943
:10082000384A43F480339361364B9B69354A23F44D
:1008300080339361334B9B69324A43F48033936135
:10084000304B9B691B0CDBB203F00103BB73BB7B1A
:10085000002B0FD12B4B9B691B0CDBB203F0010368
:10086000BB73BB7B012B02D10223FB7341E003234B
:10087000FB733EE00323FB733BE0234B9B69BA7998
:10088000012101FA02F211461F4A0B4393611E4BEC
:100890009B691D4A43F4803393611B4B9B691A4A41
:1008A00023F480339361184B9B69174A43F48033D8
:1008B0009361154B9B691B0CDBB203F00103BB7307
:1008C000BB7B002B0FD1104B9B691B0CDBB203F0E1
:1008D0000103BB73BB7B012B02D10223FB7308E036
:1008E0000323FB7305E00323FB7302E00023FB7388
:1008F00000BFFB7B18461437BD4680BC704700BF65
:1009000000080140000C01400010014080B400AF1D
:100910001B4B1B681A4A43F00103136000BF184BBE
:100920001B685B0803F00103002BF8D0144B5B68D5
:10093000134A23F001035360114B5B68104A23F004
:10094000F00353600E4B0E4A5B6853600C4B5B68C0
:100950000B4A23F4E0635360094B094A5B68536018
:10096000074B5B68064A23F460535360044B044A08
:100970005B68536002231846BD4680BC704700BFC9
:100980000010024080B485B000AF0346FB71022323
:10099000FB73FB791F2B0AD81A4B5B69FA7901218B
:1009A00001FA02F21146174A0B43536123E0FB7927
:1009B0003F2B0DD8FB79203BFB71124BDB69FA7999
:1009C000012101FA02F211460E4A0B43D36112E0F3
:1009D000FB795F2B0DD8FB79403BFB71094B9B6981
:1009E000FA79012101FA02F21146064A0B4393619A
:1009F00001E00023FB73FB7B18461437BD4680BC27
:100A0000704700BF0010024080B500AF274B9B68C5
:100A1000002B46D0264B1B689B685B0803F0010344
:100A2000002B0DD0224B1B685B68DB0903F0010330
:100A3000002B05D01D4B1A881D4B1B68DA6030E077
:100A40001B4B1B689B6803F00103002B0ED0184B57
:100A50001B685B689B0903F00103002B06D0144B55
:100A60001B68DB681A46114B5A601AE0104B1B6872
:100A70009B685B0903F00103002B07D00C4B1B683C
:100A80005B685B0903F00103002B0AD1084B1B686C
:100A90009B689B0903F00103002B02D0044B1B68E9
:100AA0005B68024B9B68984700BF80BD90000020A8
:100AB0000000002080B500AF274B5B69002B46D0BB
:100AC000264B5B689B685B0803F00103002B0DD08D
:100AD000224B5B685B68DB0903F00103002B05D048
:100AE0001D4B9A891D4B5B68DA6030E01B4B5B68DD
:100AF0009B6803F00103002B0ED0184B5B685B680A
:100B00009B0903F00103002B06D0144B5B68DB68E4
:100B10001A46114B1A611AE0104B5B689B685B091F
:100B200003F00103002B07D00C4B5B685B685B098B
:100B300003F00103002B0AD1084B5B689B689B09FB
:100B400003F00103002B02D0044B5B685B68024B8F
:100B50005B69984700BF80BD900000200000002026
:100B600080B500AF134B00221A70134B1B78012B7A
:100B70000ED1124B1B68114A23F0020313600F4B76
:100B80001B680E4A23F0010313600C4B00229A608D
:100B90000B4B1B68002B02D0094B1B689847074B77
:100BA0001B681B0CDBB203F00103DAB2014B1A70B5
:100BB00000BF80BDB0000020AC00002010E000E0CD
:100BC000A800002080B400AF244B1B681B68DB0921
:100BD00003F00103002B18D0214B1B780133DAB24C
:100BE0001F4B1A701E4B1B781A461E4B9B5C002B2A
:100BF00003D11B4B00221A7007E0194B1B781A46D1
:100C0000184B9A5C154B1B685A60144B1B681B6889
:100C10005B0903F00103002B1CD0104B1B685968C3
:100C2000114B1B781A46C9B2104B99540E4B1B78C6
:100C30001A460E4B9B5C232B06D10B4B00221A70DD
:100C40000B4B01221A7005E0074B1B780133DAB217
:100C5000054B1A7000BFBD4680BC704708000020DD
:100C6000AE000020D0000020AF000020B400002023
:100C7000AD00002080B400AF244B5B681B68DB092B
:100C800003F00103002B18D0214B1B780133DAB29B
:100C90001F4B1A701E4B1B781A461E4B9B5C002B79
:100CA00003D11B4B00221A7007E0194B1B781A4620
:100CB000184B9A5C154B5B685A60144B5B681B6859
:100CC0005B0903F00103002B1CD0104B1B68596813
:100CD000114B1B781A46C9B2104B99540E4B1B7816
:100CE0001A460E4B9B5C232B06D10B4B00221A702D
:100CF0000B4B01221A7005E0074B1B780133DAB267
:100D0000054B1A7000BFBD4680BC7047080000202C
:100D1000AE000020D0000020AF000020B400002072
:100D2000AD00002080B400AF244B9B681B68DB093A
:100D300003F00103002B18D0214B1B780133DAB2EA
:100D40001F4B1A701E4B1B781A461E4B9B5C002BC8
:100D500003D11B4B00221A7007E0194B1B781A466F
:100D6000184B9A5C154B9B685A60144B9B681B6828
:100D70005B0903F00103002B1CD0104B9B685968E2
:100D8000114B1B781A46C9B2104B99540E4B1B7865
:100D90001A460E4B9B5C232B06D10B4B00221A707C
:100DA0000B4B01221A7005E0074B1B780133DAB2B6
:100DB000054B1A7000BFBD4680BC7047080000207C
:100DC000AE000020D0000020AF000020B4000020C2
:100DD000AD00002080B500AFFFF7CAF90023184628
:100DE00080BD00000D488546AFF300800C480D49DA
:100DF0000D4A002302E0D458C4500433C4188C4276
:100E0000F9D30A4A0A4C002301E013600432A242DB
:100E1000FBD300F011F8FFF7DDFFFEE700500020E4
:100E20000000002014000020A00E00081400002084
:100E3000EC000020FEE7000070B500260C4D0D4CC4
:100E4000641BA410A64209D100F01AF800260A4D2E
:100E50000A4C641BA410A64205D170BD55F8043B92
:100E600098470136EEE755F8043B98470136F2E71C
:100E7000980E0008980E0008980E00089C0E0008B6
:100E8000F8B500BFF8BC08BC9E467047F8B500BF77
:080E9000F8BC08BC9E46704747
:040E980055010008F8
:040E9C003101000818
:100EA000003001400038004000380140004400405C
:040EB00000480040B6
:0400000508000DE5FD
:00000001FF
