:020000040800F2
:100000000050002029090008790900087909000832
:100010007909000879090008790900080000000042
:100020000000000000000000000000007909000846
:100030007909000800000000790900081905000886
:100040007909000879090008790900087909000888
:1000500079090008790900086D0200088902000882
:10006000A5020008C1020008DD020008A90100087D
:10007000C5010008E1010008FD010008190200089F
:1000800035020008510200087D01000879090008C6
:10009000790900087909000879090008F9020008BF
:1000A0007909000879090008790900087909000828
:1000B0007909000879090008790900087909000818
:1000C000790900087909000879090008C1030008C6
:1000D0006D0400087D050008B1060008E50700086A
:1000E000550300087909000800000000790900089C
:1000F00079090008790900087909000879090008D8
:1001000079090008790900087909000879090008C7
:1001100079090008790900087909000879090008B7
:1001200079090008790900087909000879090008A7
:1001300010B5054C237833B9044B13B10448AFF321
:1001400000800123237010BD140000200000000077
:10015000C409000808B5034B1BB103490348AFF3BA
:10016000008008BD0000000018000020C40900083D
:1001700080B400AF00BFBD4680BC704780B500AF03
:10018000074B1B68002B08D0064B1B685B0803F06D
:100190000103002B024B1B68984700BF80BD00BFC6
:1001A000300000200024014080B500AF044B1B68E4
:1001B000002B02D0024B1B68984700BF80BD00BFD8
:1001C0003400002080B500AF044B5B68002B02D0E8
:1001D000024B5B68984700BF80BD00BF3400002021
:1001E00080B500AF044B9B68002B02D0024B9B688C
:1001F000984700BF80BD00BF3400002080B500AF2D
:10020000044BDB68002B02D0024BDB68984700BF31
:1002100080BD00BF3400002080B500AF044B1B69D7
:10022000002B02D0024B1B69984700BF80BD00BF66
:100230003400002080B500AF044B5B69002B02D076
:10024000024B5B69984700BF80BD00BF34000020AF
:1002500080B500AF044B9B69002B02D0024B9B6919
:10026000984700BF80BD00BF3400002080B500AFBC
:10027000044B1B68002B02D0024B1B68984700BF41
:1002800080BD00BF5000002080B500AF044B5B680C
:10029000002B02D0024B5B68984700BF80BD00BFB7
:1002A0005000002080B500AF044B9B68002B02D0AB
:1002B000024B9B68984700BF80BD00BF50000020E4
:1002C00080B500AF044BDB68002B02D0024BDB682B
:1002D000984700BF80BD00BF5000002080B500AF30
:1002E000044B1B69002B02D0024B1B69984700BFCF
:1002F00080BD00BF5000002080B500AF144B5B698B
:10030000002B03D0124B5B6998471EE0104B9B6992
:10031000002B03D00E4B9B69984716E00C4BDB6912
:10032000002B03D00A4BDB6998470EE0084B1B6A91
:10033000002B03D0064B1B6A984706E0044B5B6A10
:10034000002B02D0024B5B6A984700BF80BD00BF04
:100350005000002080B500AF184B9B6A002B03D0E3
:10036000164B9B6A984726E0144BDB6A002B03D0A0
:10037000124BDB6A98471EE0104B1B6B002B03D01F
:100380000E4B1B6B984716E00C4B5B6B002B03D09E
:100390000A4B5B6B98470EE0084B9B6B002B03D01E
:1003A000064B9B6B984706E0044BDB6B002B02D09F
:1003B000024BDB6B984700BF80BD00BF50000020A0
:1003C00080B500AF274B9B68002B46D0264B1B689F
:1003D0009B685B0803F00103002B0DD0224B1B68C8
:1003E0005B68DB0903F00103002B05D01D4B1A8865
:1003F0001D4B1B68DA6030E01B4B1B689B6803F0E9
:100400000103002B0ED0184B1B685B689B0903F09F
:100410000103002B06D0144B1B68DB681A46114BF6
:100420005A601AE0104B1B689B685B0903F00103DC
:10043000002B07D00C4B1B685B685B0903F00103C2
:10044000002B0AD1084B1B689B689B0903F0010332
:10045000002B02D0044B1B685B68024B9B689847DB
:1004600000BF80BD900000200000002080B500AFDC
:10047000274B5B69002B46D0264B5B689B685B086B
:1004800003F00103002B0DD0224B5B685B68DB0996
:1004900003F00103002B05D01D4B9A891D4B5B68AF
:1004A000DA6030E01B4B5B689B6803F00103002BB4
:1004B0000ED0184B5B685B689B0903F00103002BAF
:1004C00006D0144B5B68DB681A46114B1A611AE0C0
:1004D000104B5B689B685B0903F00103002B07D09E
:1004E0000C4B5B685B685B0903F00103002B0AD1CE
:1004F000084B5B689B689B0903F00103002B02D04B
:10050000044B5B685B68024B5B69984700BF80BD2A
:10051000900000200000002080B500AF134B0022A7
:100520001A70134B1B78012B0ED1124B1B68114A0A
:1005300023F0020313600F4B1B680E4A23F00103E4
:1005400013600C4B00229A600B4B1B68002B02D0EF
:10055000094B1B689847074B1B681B0CDBB203F069
:100560000103DAB2014B1A7000BF80BDD400002035
:10057000AC00002010E000E0A800002080B500AF33
:10058000494B9B68002B00F08D80484B1B681B6813
:100590001B0903F00103002B02D0444B1B68DB68EE
:1005A000424B1B681B68DB0903F00103002B0DD0D5
:1005B0003E4B1B68DB68DB0903F00103002B05D011
:1005C000394B1A79394B1B685A6068E0374B1B6806
:1005D0001B689B0903F00103002B10D0334B1B68F1
:1005E000DB689B0903F00103002B08D02F4B1B682D
:1005F0001A682E4B1B6822F040021A604FE02B4B0A
:100600001B681B685B0903F00103002B0ED0274B0E
:100610001B68DB685B0903F00103002B06D0234B4A
:100620001B685B681A46204B1A6038E01F4B1B683A
:100630001B6803F00103002B07D01C4B1B68DB6811
:100640001B0A03F00103002B29D1184B1B681B6800
:100650005B0803F00103002B06D0144B1B685B6999
:1006600003F00103002B1AD1104B1B681B68DB0839
:1006700003F00103002B07D00C4B1B68DB685B0900
:1006800003F00103002B0AD1084B1B681B689B0871
:1006900003F00103002B02D0044B1B685B69024B83
:1006A0009B68984700BF80BDB00000200800002074
:1006B00080B500AF494B5B69002B00F08D80484B43
:1006C0005B681B681B0903F00103002B02D0444B3D
:1006D0005B68DB68424B5B681B68DB0903F0010366
:1006E000002B0DD03E4B5B68DB68DB0903F0010398
:1006F000002B05D0394B1A7C394B5B685A6068E097
:10070000374B5B681B689B0903F00103002B10D07B
:10071000334B5B68DB689B0903F00103002B08D0B7
:100720002F4B5B681A682E4B5B6822F040021A6000
:100730004FE02B4B5B681B685B0903F00103002B48
:100740000ED0274B5B68DB685B0903F00103002BCD
:1007500006D0234B1B685B681A46204BDA6038E0F2
:100760001F4B5B681B6803F00103002B07D01C4B79
:100770005B68DB681B0A03F00103002B29D1184BCF
:100780005B681B685B0803F00103002B06D0144B69
:100790005B685B6903F00103002B1AD1104B5B68A7
:1007A0001B68DB0803F00103002B07D00C4B5B68D0
:1007B000DB685B0903F00103002B0AD1084B5B687F
:1007C0001B689B0803F00103002B02D0044B5B68FD
:1007D0005B69024B5B69984700BF80BDB000002099
:1007E0000800002080B500AF494B1B6A002B00F0C9
:1007F0008D80484B9B681B681B0903F00103002B8D
:1008000002D0444B9B68DB68424B9B681B68DB094A
:1008100003F00103002B0DD03E4B9B68DB68DB0926
:1008200003F00103002B05D0394B1A7F394B9B682D
:100830005A6068E0374B9B681B689B0903F0010313
:10084000002B10D0334B9B68DB689B0903F001033E
:10085000002B08D02F4B9B681A682E4B9B6822F008
:1008600040021A604FE02B4B9B681B685B0903F04A
:100870000103002B0ED0274B9B68DB685B0903F05C
:100880000103002B06D0234B1B685B681A46204BE4
:100890009A6138E01F4B9B681B6803F00103002B33
:1008A00007D01C4B9B68DB681B0A03F00103002B7D
:1008B00029D1184B9B681B685B0803F00103002BD0
:1008C00006D0144B9B685B6903F00103002B1AD11F
:1008D000104B9B681B68DB0803F00103002B07D05B
:1008E0000C4B9B68DB685B0903F00103002B0AD10A
:1008F000084B9B681B689B0803F00103002B02D088
:10090000044B9B685B69024B1B6A984700BF80BD24
:10091000B00000200800002080B500AFFFF728FCE1
:100920000023184680BD00000D488546AFF30080C7
:100930000C480D490D4A002302E0D458C45004333A
:10094000C4188C42F9D30A4A0A4C002301E0136010
:100950000432A242FBD300F011F8FFF7DDFFFEE7FF
:10096000005000200000002014000020E4090008CE
:1009700014000020D8000020FEE7000070B500261B
:100980000C4D0D4C641BA410A64209D100F01AF8BE
:1009900000260A4D0A4C641BA410A64205D170BD66
:1009A00055F8043B98470136EEE755F8043B984765
:1009B0000136F2E7DC090008DC090008DC09000860
:1009C000E0090008F8B500BFF8BC08BC9E467047B7
:0C09D000F8B500BFF8BC08BC9E4670479C
:0409DC0055010008B9
:0409E00031010008D9
:1009E400003001400038004000380140004400401D
:0409F4000048004077
:0400000508000929BD
:00000001FF
