:020000040800F2
:1000000000500020051A0008551A0008551A00086B
:10001000551A0008551A0008551A0008000000007B
:10002000000000000000000000000000551A000859
:10003000551A000800000000551A0008C1120008F7
:10004000551A0008551A0008551A0008551A0008D4
:10005000551A0008551A0008590B0008750B0008BE
:10006000910B0008AD0B0008C90B0008950A0008A9
:10007000B10A0008CD0A0008E90A0008050B0008CB
:10008000210B00083D0B0008690A0008551A0008FA
:10009000551A0008551A0008551A0008E50B000803
:1000A000551A0008551A0008551A0008B51400081A
:1000B000551A0008551A0008551A0008551A000864
:1000C000551A0008551A0008551A00081D11000895
:1000D000C9110008E517000895180008451900081F
:1000E000410C0008551A000800000000551A0008CD
:1000F000551A0008551A0008551A0008551A000824
:10010000551A0008551A0008551A0008551A000813
:10011000551A0008551A0008551A0008551A000803
:10012000551A0008551A0008551A0008551A0008F3
:1001300010B5054C237833B9044B13B10448AFF321
:1001400000800123237010BD180000200000000073
:10015000A01B000808B5034B1BB103490348AFF3CC
:10016000008008BD000000001C000020A01B00084B
:1001700081F0004102E000BF83F0004330B54FEA58
:1001800041044FEA430594EA050F08BF90EA020FC5
:100190001FBF54EA000C55EA020C7FEA645C7FEA58
:1001A000655C00F0E2804FEA5454D4EB5555B8BF7B
:1001B0006D420CDD2C4480EA020281EA030382EAEC
:1001C000000083EA010180EA020281EA0303362D7E
:1001D00088BF30BD11F0004F4FEA01314FF4801C51
:1001E0004CEA113102D0404261EB410113F0004F63
:1001F0004FEA03334CEA133302D0524263EB43031A
:1002000094EA050F00F0A780A4F10104D5F1200EB7
:100210000DDB02FA0EFC22FA05F2801841F1000112
:1002200003FA0EF2801843FA05F359410EE0A5F1E6
:1002300020050EF1200E012A03FA0EFC28BF4CF017
:10024000020C43FA05F3C01851EBE37101F00045CD
:1002500007D54FF0000EDCF1000C7EEB00006EEBDA
:100260000101B1F5801F1BD3B1F5001F0CD3490864
:100270005FEA30004FEA3C0C04F101044FEA4452BB
:1002800012F5800F80F09A80BCF1004F08BF5FEA42
:10029000500C50F1000041EB045141EA050130BD22
:1002A0005FEA4C0C404141EB0101013C28BFB1F534
:1002B000801FE9D291F0000F04BF01460020B1FA7F
:1002C00081F308BF2033A3F10B03B3F120020CDA52
:1002D0000C3208DD02F1140CC2F10C0201FA0CF030
:1002E00021FA02F10CE002F11402D8BFC2F1200C95
:1002F00001FA02F120FA0CFCDCBF41EA0C0190404B
:10030000E41AA2BF01EB0451294330BD6FEA040493
:100310001F3C1CDA0C340EDC04F11404C4F120027E
:1003200020FA04F001FA02F340EA030021FA04F390
:1003300045EA030130BDC4F10C04C4F1200220FAE7
:1003400002F001FA04F340EA0300294630BD21FA25
:1003500004F0294630BD94F0000F83F4801306BFEB
:1003600081F480110134013D4EE77FEA645C18BFDF
:100370007FEA655C29D094EA050F08BF90EA020F76
:1003800005D054EA000C04BF1946104630BD91EA6E
:10039000030F1EBF0021002030BD5FEA545C05D171
:1003A0004000494128BF41F0004130BD14F58004B0
:1003B0003CBF01F5801130BD01F0004545F0FE4124
:1003C00041F470014FF0000030BD7FEA645C1ABF59
:1003D000194610467FEA655C1CBF0B46024650EA90
:1003E000013406BF52EA033591EA030F41F40021BC
:1003F00030BD00BF90F0000F04BF0021704730B542
:100400004FF4806404F132044FF000054FF0000116
:1004100050E700BF90F0000F04BF0021704730B5D7
:100420004FF4806404F1320410F0004548BF4042AC
:100430004FF000013EE700BF42004FEAE2014FEA01
:1004400031014FEA02701FBF12F07F4393F07F4FDC
:1004500081F06051704732F07F4208BF704793F0DF
:100460007F4F04BF41F40021704730B54FF46074F2
:1004700001F0004521F000411CE700BF50EA0102F5
:1004800008BF704730B54FF000050AE050EA01029E
:1004900008BF704730B511F0004502D5404261EB0E
:1004A00041014FF4806404F132045FEA915C3FF44F
:1004B000D8AE4FF003025FEADC0C18BF03325FEAEC
:1004C000DC0C18BF033202EBDC02C2F1200300FA9D
:1004D00003FC20FA02F001FA03FE40EA0E0021FAC2
:1004E00002F11444BDE600BF4FF0FF3C06E000BF40
:1004F0004FF0010C02E000BF4FF0010C4DF804CDAD
:100500004FEA410C7FEA6C5C4FEA430C18BF7FEA6C
:100510006C5C1BD001B050EA410C0CBF52EA430C9A
:1005200091EA030F02BF90EA020F0020704710F11A
:10053000000F91EA030F58BF994208BF90422CBFA9
:10054000D8176FEAE37040F0010070474FEA410CA2
:100550007FEA6C5C02D150EA013C07D14FEA430CC0
:100560007FEA6C5CD6D152EA033CD3D05DF8040B31
:10057000704700BF8446104662468C461946634663
:1005800000E000BF01B5FFF7B7FF002848BF10F13A
:10059000000F01BD4DF808EDFFF7F4FF0CBF01207F
:1005A00000205DF808FB00BF4DF808EDFFF7EAFFFB
:1005B00034BF012000205DF808FB00BF4DF808EDB6
:1005C000FFF7E0FF94BF012000205DF808FB00BFAB
:1005D0004DF808EDFFF7CEFF94BF012000205DF835
:1005E00008FB00BF4DF808EDFFF7C4FF34BF012042
:1005F00000205DF808FB00BF4A0011D212F500127E
:1006000011D20DD56FF47873B3EB62520ED44FEA6A
:10061000C12343F0004343EA505323FA02F07047EA
:100620004FF00000704750EA013002D14FF0FF3028
:1006300070474FF0000070474FF0FF0C1CEAD0529B
:100640001EBF1CEAD15392EA0C0F93EA0C0F6FD035
:100650001A4480EA010C400218BF5FEA41211ED013
:100660004FF0006343EA501043EA5111A0FB0131FF
:100670000CF00040B1F5000F3EBF490041EAD371D4
:100680005B0040EA010062F17F02FD2A1DD8B3F150
:10069000004F40EBC25008BF20F00100704790F0BF
:1006A000000F0CF0004C08BF49024CEA502040EA11
:1006B00051207F3AC2BFD2F1FF0340EAC2507047D7
:1006C00040F400004FF00003013A5DDC12F1190F15
:1006D000DCBF00F000407047C2F10002410021FA87
:1006E00002F1C2F1200200FA02FC5FEA310040F19F
:1006F000000053EA4C0308BF20EADC70704792F018
:10070000000F00F0004C02BF400010F4000F013A4F
:10071000F9D040EA0C0093F0000F01F0004C02BF4A
:10072000490011F4000F013BF9D041EA0C018FE7B9
:100730000CEAD15392EA0C0F18BF93EA0C0F0AD0BF
:1007400030F0004C18BF31F0004CD8D180EA0100E5
:1007500000F00040704790F0000F17BF90F0004F7E
:10076000084691F0000F91F0004F14D092EA0C0F60
:1007700001D142020FD193EA0C0F03D14B0218BFF3
:10078000084608D180EA010000F0004040F0FE4039
:1007900040F40000704740F0FE4040F440007047D5
:1007A0004FF0FF0C1CEAD0521EBF1CEAD15392EA54
:1007B0000C0F93EA0C0F69D0A2EB030280EA010C44
:1007C00049024FEA402037D04FF0805343EA1111DD
:1007D00043EA10130CF000408B4238BF5B0042F13B
:1007E0007D024FF4000C8B4224BF5B1A40EA0C00E0
:1007F000B3EB510F24BFA3EB510340EA5C00B3EB12
:10080000910F24BFA3EB910340EA9C00B3EBD10FFF
:1008100024BFA3EBD10340EADC001B0118BF5FEA51
:100820001C1CE0D1FD2A3FF650AF8B4240EBC2507A
:1008300008BF20F0010070470CF0004C4CEA50203B
:100840007F32C2BFD2F1FF0340EAC250704740F48A
:1008500000004FF00003013A37E792F0000F00F07C
:10086000004C02BF400010F4000F013AF9D040EAFA
:100870000C0093F0000F01F0004C02BF490011F48E
:10088000000F013BF9D041EA0C0195E70CEAD15386
:1008900092EA0C0F08D142027FF47DAF93EA0C0F6D
:1008A0007FF470AF084676E793EA0C0F04D14B0251
:1008B0003FF44CAF08466EE730F0004C18BF31F003
:1008C000004CCAD130F000427FF45CAF31F00043FD
:1008D0007FF43CAF5FE700BF80B586B000AF00F0AB
:1008E0009FFB422000F0D8FB402000F0D5FB4E20BB
:1008F00000F0D2FB4B2000F0CFFB022200210020B1
:1009000000F0D4F904220821002000F0CFF90A22D7
:100910000921002000F0CAF904220A21002000F079
:10092000C5F940F24133BB6003237B710623BB71E1
:100930000723FB7101233B713B1D1946002000F08A
:10094000C7FD00F011FB2C4800F070FD00F0EAFC40
:10095000082000F01BFD00F049FD1B2000F012FBF9
:1009600000F024FD01220021002000F079FA0A2085
:1009700000F080FC00220021002000F071FA00BF8E
:100980001E4B1B78DBB2032BFAD11C4B01221A70D1
:100990001B4B1B889BB21A461A4B1B889BB2D31A5F
:1009A0007B614FF000033B614FF080413869FFF7F6
:1009B000F7FE034614491846FFF73EFE0346184665
:1009C000FFF73AFD02460B461046194601F068F85B
:1009D00002460B4610461946FFF70EFE0346FB8102
:1009E000FB89DBB21946002000F08EFE074900208B
:1009F00000F0CAFEAFE700BF110A000800000020A7
:100A0000360000203400002000FC0547B81B000819
:100A100080B500AF114B1B78DBB2012B09D1104818
:100A200000F014FD012000F023FD0C4B02221A708F
:100A300011E00A4B1B78DBB2022B0CD1094800F005
:100A400005FD064B03221A7000F0E0FC00F0BEFC2E
:100A50001B2000F0BDFA00BF80BD00BF00000020D9
:100A6000340000203600002080B500AF074B1B6823
:100A7000002B08D0064B1B685B0803F00103002B1A
:100A8000024B1B68984700BF80BD00BF38000020A4
:100A90000024014080B500AF044B1B68002B02D03E
:100AA000024B1B68984700BF80BD00BF3C00002080
:100AB00080B500AF044B5B68002B02D0024B5B6833
:100AC000984700BF80BD00BF3C00002080B500AF4C
:100AD000044B9B68002B02D0024B9B68984700BFD9
:100AE00080BD00BF3C00002080B500AF044BDB6838
:100AF000002B02D0024BDB68984700BF80BD00BFCF
:100B00003C00002080B500AF044B1B69002B02D0D5
:100B1000024B1B69984700BF80BD00BF3C0000200E
:100B200080B500AF044B5B69002B02D0024B5B69C0
:100B3000984700BF80BD00BF3C00002080B500AFDB
:100B4000044B9B69002B02D0024B9B69984700BF66
:100B500080BD00BF3C00002080B500AF044B1B6887
:100B6000002B02D0024B1B68984700BF80BD00BF1E
:100B70005800002080B500AF044B5B68002B02D00A
:100B8000024B5B68984700BF80BD00BF5800002043
:100B900080B500AF044B9B68002B02D0024B9B68D2
:100BA000984700BF80BD00BF5800002080B500AF4F
:100BB000044BDB68002B02D0024BDB68984700BF78
:100BC00080BD00BF5800002080B500AF044B1B69FA
:100BD000002B02D0024B1B69984700BF80BD00BFAD
:100BE0005800002080B500AF144B5B69002B03D088
:100BF000124B5B6998471EE0104B9B69002B03D09A
:100C00000E4B9B69984716E00C4BDB69002B03D019
:100C10000A4BDB6998470EE0084B1B6A002B03D098
:100C2000064B1B6A984706E0044B5B6A002B02D018
:100C3000024B5B6A984700BF80BD00BF5800002090
:100C400080B500AF184B9B6A002B03D0164B9B6AF4
:100C5000984726E0144BDB6A002B03D0124BDB6A6B
:100C600098471EE0104B1B6B002B03D00E4B1B6BE9
:100C7000984716E00C4B5B6B002B03D00A4B5B6B69
:100C800098470EE0084B9B6B002B03D0064B9B6BE9
:100C9000984706E0044BDB6B002B02D0024BDB6B6A
:100CA000984700BF80BD00BF5800002080B485B0C9
:100CB00000AF0346FB710B46BB7113467B710223E9
:100CC000FB73FB79022B7FD0022B00F3B980002B42
:100CD00002D0012B3CD0B3E0BB79072B17D85D4B7A
:100CE0001B68BA7992000F2101FA02F2D243114631
:100CF000584A0B401360574B1B687979BA799200B8
:100D000001FA02F21146534A0B4313609BE0BB7990
:100D10000F2B1AD8BB79083BBB714E4B5B68BA7975
:100D200092000F2101FA02F2D2431146494A0B40C8
:100D30005360484B5B687979BA79920001FA02F204
:100D40001146444A0B4353607DE00023FB737AE075
:100D5000BB79072B17D8404B1B68BA7992000F213B
:100D600001FA02F2D24311463B4A0B4013603A4B60
:100D70001B687979BA79920001FA02F21146364A73
:100D80000B4313605FE0BB790F2B1AD8BB79083B8C
:100D9000BB71314B5B68BA7992000F2101FA02F204
:100DA000D24311462C4A0B4053602B4B5B68797938
:100DB000BA79920001FA02F21146274A0B435360B6
:100DC00041E00023FB733EE0BB79072B17D8234B90
:100DD0001B68BA7992000F2101FA02F2D243114640
:100DE0001E4A0B4013601D4B1B687979BA7992003B
:100DF00001FA02F21146194A0B43136023E0BB7952
:100E00000F2B1AD8BB79083BBB71144B5B68BA79BE
:100E100092006FF00F0101FA02F211460F4A0B40E7
:100E200053600E4B5B687979BA79920001FA02F24D
:100E300011460A4A0B43536005E00023FB7302E0AE
:100E40000023FB7300BFFB7B18461437BD4680BCF4
:100E5000704700BF00080140000C01400010014035
:100E600080B485B000AF0346FB710B46BB711346DF
:100E70007B710223FB73FB79022B46D0022B64DCCF
:100E8000002B02D0012B20D05FE07B79012B0AD10F
:100E9000324BDB68BA79012101FA02F211462F4A7E
:100EA0000B43D36054E07B79002B0BD12B4BDB68D9
:100EB000BA79012101FA02F2D2431146274A0B40C6
:100EC000D36045E00023FB7342E07B79012B0AD11C
:100ED000234BDB68BA79012101FA02F21146204A5C
:100EE0000B43D36034E07B79002B0BD11C4BDB68C8
:100EF000BA79012101FA02F2D2431146184A0B4095
:100F0000D36025E00023FB7322E07B79012B0AD11B
:100F1000144BDB68BA79012101FA02F21146114A39
:100F20000B43D36014E07B79002B0BD10D4BDB68B6
:100F3000BA79012101FA02F2D2431146094A0B4063
:100F4000D36005E00023FB7302E00023FB7300BFC6
:100F5000FB7B18461437BD4680BC70470008014033
:100F6000000C01400010014080B400AF034B044A64
:100F70001A6002231846BD4680BC70470CED00E0A5
:100F80000006FA0580B485B000AF0346FB7102236A
:100F9000FB73FB791F2B05D8FB7901229A400B4B81
:100FA0001A600DE0FB793F2B08D8FB79203BFB71E1
:100FB000FB7901229A40054B5A6001E00023FB7344
:100FC000FB7B18461437BD4680BC704700E100E04B
:100FD00080B485B000AF0346FB710223FB73FB793D
:100FE0001F2B06D8FB7901229A400C4BC3F88020B6
:100FF0000EE0FB793F2B09D8FB79203BFB71FB7995
:1010000001229A40054BC3F8842001E00023FB73C2
:10101000FB7B18461437BD4680BC704700E100E0FA
:1010200080B400AF1B4B1B681A4A43F001031360E6
:1010300000BF184B1B685B0803F00103002BF8D0BE
:10104000144B5B68134A23F001035360114B5B6838
:10105000104A23F0F00353600E4B0E4A5B68536056
:101060000C4B5B680B4A23F4E0635360094B094A5D
:101070005B685360074B5B68064A23F46053536018
:10108000044B044A5B68536002231846BD4680BC8B
:10109000704700BF0010024080B485B000AF034627
:1010A000FB710223FB73FB791F2B0AD81A4B5B6978
:1010B000FA79012101FA02F21146174A0B435361F2
:1010C00023E0FB793F2B0DD8FB79203BFB71124BC2
:1010D000DB69FA79012101FA02F211460E4A0B434B
:1010E000D36112E0FB795F2B0DD8FB79403BFB719C
:1010F000094B9B69FA79012101FA02F21146064A6D
:101100000B43936101E00023FB73FB7B184614370C
:10111000BD4680BC704700BF0010024080B500AFE4
:10112000274B9B68002B46D0264B1B689B685B08AF
:1011300003F00103002B0DD0224B1B685B68DB0919
:1011400003F00103002B05D01D4B1A881D4B1B68B3
:10115000DA6030E01B4B1B689B6803F00103002B37
:101160000ED0184B1B685B689B0903F00103002B32
:1011700006D0144B1B68DB681A46114B5A601AE004
:10118000104B1B689B685B0903F00103002B07D021
:101190000C4B1B685B685B0903F00103002B0AD151
:1011A000084B1B689B689B0903F00103002B02D0CE
:1011B000044B1B685B68024B9B68984700BF80BD6F
:1011C000980000200400002080B500AF274B5B6929
:1011D000002B46D0264B5B689B685B0803F001033D
:1011E000002B0DD0224B5B685B68DB0903F0010329
:1011F000002B05D01D4B9A891D4B5B68DA6030E0EF
:101200001B4B5B689B6803F00103002B0ED0184B4F
:101210005B685B689B0903F00103002B06D0144B4D
:101220005B68DB681A46114B1A611AE0104B5B6869
:101230009B685B0903F00103002B07D00C4B5B6834
:101240005B685B0903F00103002B0AD1084B5B6864
:101250009B689B0903F00103002B02D0044B5B68E1
:101260005B68024B5B69984700BF80BD9800002017
:101270000400002080B483B000AF78600F4A7B6820
:1012800053600E4B1B680D4A43F00103136000BF0F
:101290000A4B1B681B0C03F00103002BF8D0074B13
:1012A0001B68064A23F001031360044B00229A6076
:1012B000022318460C37BD4680BC704710E000E0A2
:1012C00080B500AF134B00221A70134B1B78012B13
:1012D0000ED1124B1B68114A23F0020313600F4B0F
:1012E0001B680E4A23F0010313600C4B00229A6026
:1012F0000B4B1B68002B02D0094B1B689847074B10
:101300001B681B0CDBB203F00103DAB2014B1A704D
:1013100000BF80BDBF000020B400002010E000E04E
:10132000B000002080B400AF174B9B69164A23F031
:1013300001039361144B9B69134A43F002039361C9
:10134000114B9B69104A43F0300393610E4B1B6AAB
:101350000D4A43F0010313620B4B9B690A4A23F0C9
:1013600004039361084B9B69074A23F008039361C8
:10137000054B1B6A044A23F002031362022318463A
:10138000BD4680BC704700BF002C014080B483B0D4
:1013900000AF0346FB80044AFB8893620223184691
:1013A0000C37BD4680BC7047002C014080B400AFB4
:1013B000054B1B68044A43F00103136002231846DF
:1013C000BD4680BC704700BF002C014080B400AF18
:1013D000054B1B68044A23F00103136002231846DF
:1013E000BD4680BC704700BF002C014080B400AFF8
:1013F000054BDB68044A43F00203D360022318461E
:10140000BD4680BC704700BF002C014080B400AFD7
:10141000054BDB68044A23F00203D360022318461D
:10142000BD4680BC704700BF002C014080B483B033
:1014300000AF7860044A7B681360022318460C37BB
:10144000BD4680BC704700BFB800002080B483B0A8
:1014500000AF7860054B5B6B9AB27B681A80022301
:1014600018460C37BD4680BC704700BF002C0140B9
:1014700080B483B000AF0346FB71FB79002B07D12A
:101480000B4B1B6A0A4A23F002031362022309E092
:10149000FB79012B05D1064B1B6A054A43F0020379
:1014A0001362022318460C37BD4680BC704700BF4C
:1014B000002C014080B500AF044B1B68002B02D00C
:1014C000024B1B68984700BF80BD00BFB8000020DA
:1014D00080B485B000AF03463960FB710223FB7313
:1014E000FB79022B00F206813B68002B00F0FF80A5
:1014F0003B681B78002B02D0012B0DD019E0FB7943
:10150000804A52F823305A69FB797E4951F82330DA
:1015100042F008025A610EE0FB797A4A52F8233011
:101520005A69FB79774951F8233022F008025A6151
:1015300001E00023FB733B685B78022B02D0032B96
:101540000DD019E0FB796F4A52F82330DA68FB7945
:101550006C4951F8233022F48052DA600EE0FB79B6
:10156000684A52F82330DA68FB79664951F823302B
:1015700042F48052DA6001E00023FB733B689B7801
:10158000062B38D0062B43DC042B02D0052B19D0B8
:101590003EE0FB795B4A52F82330DA68FB7959491F
:1015A00051F8233042F48062DA60FB79554A52F8F0
:1015B0002330DA68FB79534951F8233022F4007262
:1015C000DA6027E0FB794F4A52F82330DA68FB797A
:1015D0004C4951F8233042F48062DA60FB79494A81
:1015E00052F82330DA68FB79464951F8233042F447
:1015F0000072DA600EE0FB79424A52F82330DA6872
:10160000FB79404951F8233022F48062DA6001E02E
:101610000023FB733B68DB78072B02D0082B19D023
:1016200031E0FB79374A52F823301A69FB793549A2
:1016300051F8233022F480521A61FB79314A52F872
:1016400023301A69FB792F4951F8233022F40052D4
:101650001A611AE0FB792B4A52F823301A69FB7998
:10166000284951F8233022F480521A61FB79254A27
:1016700052F823301A69FB79224951F8233042F499
:1016800000521A6101E00023FB73FB791D4A52F8F6
:1016900023303A6852689A60FB791A4A52F823302C
:1016A000DA68FB79174951F8233042F00802DA6012
:1016B000FB79144A52F82330DA68FB79114951F862
:1016C000233042F00402DA60FB790E4A52F82330EC
:1016D000DA68FB790B4951F8233042F40052DA60A2
:1016E000FB79084A52F8233000221A6004E00123F3
:1016F000FB7301E00023FB73FB7B18461437BD46E8
:1017000080BC70470C00002080B485B000AF034659
:101710000A46FB711346BB710223FB73FB79022B54
:1017200028D800BFFB79174A52F823301B68DB0921
:1017300003F00103002BF5D0FB79124A52F8233055
:10174000BA795A6000BFFB790E4A52F823301B6801
:101750009B0903F00103002BF5D0FB79094A52F8ED
:1017600023301A68FB79074951F8233022F04002F0
:101770001A6001E00023FB73FB7B18461437BD465B
:1017800080BC70470C00002080B584B000AF0346D9
:101790003960FB710223FB730023BB73FB79022BBF
:1017A00019D83B68002B13D00BE0BB7B3A6813447D
:1017B0001A78FB7911461846FFF7A6FFBB7B013369
:1017C000BB73BB7B3A6813441B78002BEDD104E05C
:1017D0000123FB7301E00023FB73FB7B18461037EA
:1017E000BD4680BD80B400AF244B1B681B68DB097D
:1017F00003F00103002B18D0214B1B780133DAB220
:101800001F4B1A701E4B1B781A461E4B9B5C002BFD
:1018100003D11B4B00221A7007E0194B1B781A46A4
:10182000184B9A5C154B1B685A60144B1B681B685D
:101830005B0903F00103002B1CD0104B1B68596897
:10184000114B1B781A46C9B2104B99540E4B1B789A
:101850001A460E4B9B5C232B06D10B4B00221A70B1
:101860000B4B01221A7005E0074B1B780133DAB2EB
:10187000054B1A7000BFBD4680BC70470C000020AD
:10188000BD000020DC000020BE000020C0000020C1
:10189000BC00002080B400AF244B5B681B68DB09F0
:1018A00003F00103002B18D0214B1B780133DAB26F
:1018B0001F4B1A701E4B1B781A461E4B9B5C002B4D
:1018C00003D11B4B00221A7007E0194B1B781A46F4
:1018D000184B9A5C154B5B685A60144B5B681B682D
:1018E0005B0903F00103002B1CD0104B1B685968E7
:1018F000114B1B781A46C9B2104B99540E4B1B78EA
:101900001A460E4B9B5C232B06D10B4B00221A7000
:101910000B4B01221A7005E0074B1B780133DAB23A
:10192000054B1A7000BFBD4680BC70470C000020FC
:10193000BD000020DC000020BE000020C000002010
:10194000BC00002080B400AF244B9B681B68DB09FF
:1019500003F00103002B18D0214B1B780133DAB2BE
:101960001F4B1A701E4B1B781A461E4B9B5C002B9C
:1019700003D11B4B00221A7007E0194B1B781A4643
:10198000184B9A5C154B9B685A60144B9B681B68FC
:101990005B0903F00103002B1CD0104B9B685968B6
:1019A000114B1B781A46C9B2104B99540E4B1B7839
:1019B0001A460E4B9B5C232B06D10B4B00221A7050
:1019C0000B4B01221A7005E0074B1B780133DAB28A
:1019D000054B1A7000BFBD4680BC70470C0000204C
:1019E000BD000020DC000020BE000020C000002060
:1019F000BC00002080B500AFFEF76EFF0023184644
:101A000080BD00000D488546AFF300800C480D49AD
:101A10000D4A002302E0D458C4500433C4188C4249
:101A2000F9D30A4A0A4C002301E013600432A242AF
:101A3000FBD300F011F8FFF7DDFFFEE700500020B8
:101A40000000002018000020C41B0008180000201F
:101A5000F8000020FEE7000070B500260C4D0D4C8C
:101A6000641BA410A64209D100F09AF800260A4D82
:101A70000A4C641BA410A64205D170BD55F8043B66
:101A800098470136EEE755F8043B98470136F2E7F0
:101A9000BC1B0008BC1B0008BC1B0008C01B0008C6
:101AA0002DE9F843C1F30A58A8F2FF36132E024677
:101AB0000B4607460C46054631DC002E12DA34A3ED
:101AC000D3E90023FEF75AFB00220023FEF78AFD2C
:101AD00028B1002C56DB3C4358D000252E4C234621
:101AE0002F4625E02D4A42FA06F801EA0802024391
:101AF0001ED027A3D3E90023FEF740FB00220023DA
:101B0000FEF770FD0028EAD0002CC2BF4FF480130E
:101B100043FA06F6A419002524EA0804DFE7332E69
:101B20000ADDB6F5806F03D1FEF728FB07460B46AA
:101B300038461946BDE8F8834FF0FF32A8F2134843
:101B400022FA08F818EA000FF2D011A3D3E9002313
:101B5000FEF714FB00220023FEF744FD0028BED050
:101B6000002C02DD142E03D1013425EA0805B6E766
:101B70000123C6F1340603FA06F63544BD4238BFE8
:101B8000E418F2E700254FF00044A8E72546A6E751
:101B90009C7500883CE4377E0000F03FFFFF0F009B
:101BA000F8B500BFF8BC08BC9E467047F8B500BF4A
:081BB000F8BC08BC9E4670471A
:041BB8000D0A000012
:041BBC0055010008C7
:041BC00031010008E7
:101BC40001000000003001400038004000380140AE
:081BD4000044004000480040FD
:0400000508001A05D0
:00000001FF
