:020000040800F2
:100000000050002095080008E5080008E5080008F1
:10001000E5080008E5080008E50800080000000001
:10002000000000000000000000000000E5080008DB
:10003000E508000800000000E5080008E1060008E7
:10004000E5080008E5080008E5080008E5080008DC
:10005000E5080008E5080008E5080008E5080008CC
:10006000E5080008E5080008E5080008E5080008BC
:10007000E5080008E5080008E5080008E5080008AC
:10008000E5080008E5080008E5080008E50800089C
:10009000E5080008E5080008E5080008E50800088C
:1000A000E5080008E5080008E5080008E50800087C
:1000B000E5080008E5080008E5080008E50800086C
:1000C000E5080008E5080008E5080008E50800085C
:1000D000E5080008E5080008E5080008E50800084C
:1000E000E5080008E508000800000000E508000831
:1000F000E5080008E5080008E5080008E50800082C
:10010000E5080008E5080008E5080008E50800081B
:10011000E5080008E5080008E5080008E50800080B
:10012000E5080008E5080008E5080008E5080008FB
:1001300010B5054C237833B9044B13B10448AFF321
:1001400000800123237010BD00000020000000008B
:100150003009000808B5034B1BB103490348AFF34E
:10016000008008BD000000000400002030090008E5
:1001700080B582B000AF03460A46FB711346BB71DF
:10018000B979FB790122184600F018F802231846C5
:100190000837BD4680BD80B582B000AF03460A4631
:1001A000FB711346BB71B979FB790022184600F048
:1001B00005F8022318460837BD4680BD80B485B0D7
:1001C00000AF0346FB710B46BB7113467B710223E4
:1001D000FB73FB79032B46D0032B64DC012B02D08D
:1001E000022B20D05FE07B79012B0AD1324BDB68F8
:1001F000BA79012101FA02F211462F4A0B43D3606A
:1002000054E07B79002B0BD12B4BDB68BA790121B1
:1002100001FA02F2D2431146274A0B40D36045E06F
:100220000023FB7342E07B79012B0AD1234BDB686F
:10023000BA79012101FA02F21146204A0B43D36038
:1002400034E07B79002B0BD11C4BDB68BA790121A0
:1002500001FA02F2D2431146184A0B40D36025E05E
:100260000023FB7322E07B79012B0AD1144BDB685E
:10027000BA79012101FA02F21146114A0B43D36007
:1002800014E07B79002B0BD10D4BDB68BA7901218F
:1002900001FA02F2D2431146094A0B40D36005E04D
:1002A0000023FB7302E00023FB7300BFFB7B1846B7
:1002B0001437BD4680BC704700080140000C014067
:1002C0000010014080B485B000AF0346FB710B46BF
:1002D000BB7113467B710223FB73BB79032B38D0B0
:1002E000032B4FDC012B02D0022B19D04AE0FB7903
:1002F000002B07D17B794FF0113202FB03F2254B23
:100300001A6041E0FB79012B07D17B794FF0113264
:1003100002FB03F21F4B5A6036E00023FB7333E00D
:10032000FB79002B07D17B794FF0113202FB03F2EE
:10033000194B1A6028E0FB79012B07D17B794FF02C
:10034000113202FB03F2144B5A601DE00023FB73D1
:100350001AE0FB79002B07D17B794FF0113202FBB9
:1003600003F20E4B1A600FE0FB79012B07D17B796A
:100370004FF0113202FB03F2084B5A6004E00023F5
:10038000FB7301E00023FB73FB7B18461437BD466B
:1003900080BC704700080140000C01400010014083
:1003A00080B485B000AF0346FB710B46BB711346AA
:1003B0007B710223FB73BB79032B00F08880032B36
:1003C00000F3C580012B02D0022B40D0BFE07B7927
:1003D000012B09D1FB79002B06D1614BDB68604A08
:1003E00043F0FF03D36031E07B79012B09D1FB7926
:1003F000012B06D15A4BDB68594A43F47F43D36043
:1004000024E07B79002B0DD1FB79002B0AD1544BD2
:10041000DB68534A23F0FF03D360514B504ADB683B
:10042000D36013E07B79002B0DD1FB79012B0AD12E
:100430004B4BDB684A4A23F47F43D360484B484A1E
:10044000DB68D36002E00023FB7383E082E07B790A
:10045000012B09D1FB79002B06D1424BDB68414AC5
:1004600043F0FF03D36031E07B79012B09D1FB79A5
:10047000012B06D13B4BDB683A4A43F47F43D36000
:1004800024E07B79002B0DD1FB79002B0AD1354B71
:10049000DB68344A23F0FF03D360324B314ADB6818
:1004A000D36013E07B79002B0DD1FB79012B0AD1AE
:1004B0002C4BDB682B4A23F47F43D360294B294A1A
:1004C000DB68D36002E00023FB7343E042E07B790A
:1004D000012B09D1FB79002B06D1234BDB68224A83
:1004E00043F0FF03D36031E07B79012B09D1FB7925
:1004F000012B06D11C4BDB681B4A43F47F43D360BE
:1005000024E07B79002B0DD1FB79002B0AD1164B0F
:10051000DB68154A23F0FF03D360134B124ADB68F4
:10052000D36013E07B79002B0DD1FB79012B0AD12D
:100530000D4BDB680C4A23F47F43D3600A4B0A4A15
:10054000DB68D36002E00023FB7303E002E00023DA
:10055000FB7300BFFB7B18461437BD4680BC704759
:1005600000080140000C01400010014080B400AFC1
:100570001B4B1B681A4A43F00103136000BF184B62
:100580001B685B0803F00103002BF8D0144B5B6879
:10059000134A23F001035360114B5B68104A23F0A8
:1005A000F00353600E4B0E4A5B6853600C4B5B6864
:1005B0000B4A23F4E0635360094B094A5B685360BC
:1005C000074B5B68064A23F460535360044B044AAC
:1005D0005B68536002231846BD4680BC704700BF6D
:1005E0000010024080B485B000AF0346FB710223C7
:1005F000FB73FB791F2B0AD81A4B5B69FA7901212F
:1006000001FA02F21146174A0B43536123E0FB79CA
:100610003F2B0DD8FB79203BFB71124BDB69FA793C
:10062000012101FA02F211460E4A0B43D36112E096
:10063000FB795F2B0DD8FB79403BFB71094B9B6924
:10064000FA79012101FA02F21146064A0B4393613D
:1006500001E00023FB73FB7B18461437BD4680BCCA
:10066000704700BF0010024080B400AF054B1B680C
:10067000044A23F00403136002231846BD4680BCDD
:10068000704700BF10E000E080B483B000AF0346C5
:10069000FB80FB884FF47A7202FB03F20F4B5A6027
:1006A0000E4B1B680D4A43F00103136000BF0B4B58
:1006B0001B681B0C03F00103002BF8D0074B1B68D1
:1006C000064A23F001031360044B00229A600223C0
:1006D00018460C37BD4680BC704700BF10E000E0F4
:1006E00080B582B000AF0023FB71134B1B78012B48
:1006F0000ED1124B1B68114A23F0020313600F4BFB
:100700001B680E4A23F0010313600C4B00229A6011
:100710000B4B1B68002B02D0094B1B689847074BFB
:100720001B681B0CDBB203F00103DBB2FB7100BFE3
:100730000837BD4680BD00BF2000002010E000E06B
:100740001C00002080B584B000AFFFF70FFF4220EF
:10075000FFF748FF022201210020FFF7B3FDFFF75A
:1007600083FF0023FB7336E00023BB602DE0BB68F2
:10077000DBB219460120FFF7FBFCC820FFF784FF1E
:10078000BB68DBB219460120FFF705FDBB68072BEC
:1007900018D1BB68013B7B6011E07B68DBB2194676
:1007A0000120FFF7E5FCC820FFF76EFF7B68DBB296
:1007B00019460120FFF7EFFC7B68013B7B607B68FB
:1007C000002BEADABB680133BB60BB68072BCEDDC8
:1007D000FB7B0133FB73FB7B032BC5D90023FB7031
:1007E00039E00023BB7030E0BB78C3F10303DBB218
:1007F00019460120FFF7BCFCBB780433DBB2194675
:100800000120FFF7B5FCC820FFF73EFFBB78032BA4
:1008100018D100237B7012E07B78C3F10703DBB2B1
:1008200019460120FFF7B7FC7B7819460120FFF736
:10083000B2FCC820FFF728FF7B7801337B707B7800
:10084000032BE9D9BB780133BB70BB78032BCBD921
:10085000FB780133FB70FB78032BC2D900233B707C
:1008600014E0012201210020FFF79AFD4FF4FA70F5
:10087000FFF70AFF002201210020FFF791FD4FF44E
:10088000FA70FFF701FF3B7801333B703B78072B91
:10089000E7D966E70D488546AFF300800C480D495F
:1008A0000D4A002302E0D458C4500433C4188C42CB
:1008B000F9D30A4A0A4C002301E013600432A24231
:1008C000FBD300F011F8FFF73DFFFEE700500020DA
:1008D0000000002000000020500900080000002057
:1008E00024000020FEE7000070B500260C4D0D4CE2
:1008F000641BA410A64209D100F01AF800260A4D84
:100900000A4C641BA410A64205D170BD55F8043BE7
:1009100098470136EEE755F8043B98470136F2E771
:100920004809000848090008480900084C0900085F
:10093000F8B500BFF8BC08BC9E467047F8B500BFCC
:08094000F8BC08BC9E4670479C
:04094800550100084D
:04094C00310100086D
:040000050800089552
:00000001FF
