:020000040800F2
:100000000050002009080008590800085908000895
:1000100059080008590800085908000800000000A5
:100020000000000000000000000000005908000867
:10003000590800080000000059080008610700087E
:10004000590800085908000859080008590800080C
:1000500059080008590800085908000859080008FC
:1000600059080008590800085908000859080008EC
:1000700059080008590800085908000859080008DC
:1000800059080008590800085908000859080008CC
:1000900059080008590800085908000859080008BC
:1000A00059080008590800085908000859080008AC
:1000B000590800085908000859080008590800089C
:1000C000590800085908000859080008590800088C
:1000D000590800085908000859080008590800087C
:1000E00059080008590800080000000059080008D5
:1000F000590800085908000859080008590800085C
:10010000590800085908000859080008590800084B
:10011000590800085908000859080008590800083B
:10012000590800085908000859080008590800082B
:1001300010B5054C237833B9044B13B10448AFF321
:1001400000800123237010BD30000020000000005B
:10015000A408000808B5034B1BB103490348AFF3DB
:10016000008008BD0000000034000020A408000842
:1001700080B500AF02220121002000F0F1F8022238
:100180000221012000F0ECF80223184680BD80B562
:1001900084B000AF0346FB710023FB731AE0FA79C9
:1001A000FB7B42FA03F3DBB203F00103BB73BB7BBF
:1001B000002B06D1FB7B01221946012000F04CF8F0
:1001C00005E0FB7B00221946012000F045F8FB7B8F
:1001D0000133FB73FB7B072BE1D900BF00BF103756
:1001E000BD4680BD80B584B000AF78603960002323
:1001F000FB6027E00023FB721AE0002202210120AD
:1002000000F01CF9FB7A7A6813441B781846FFF754
:10021000BEFFFB7A0833DBB201221946022000F050
:100220001BF840F6C41000F06DFAFB7A0133FB7244
:10023000FB7A072BE1D94FF47A7000F063FAFB6880
:100240000133FB60FA683B689A42D3D30223184615
:100250001037BD4680BD000080B485B000AF0346B6
:10026000FB710B46BB7113467B710223FB73FB7959
:10027000032B46D0032B64DC012B02D0022B20D0B1
:100280005FE07B79012B0AD1324BDB68BA7901211F
:1002900001FA02F211462F4A0B43D36054E07B79F6
:1002A000002B0BD12B4BDB68BA79012101FA02F24A
:1002B000D2431146274A0B40D36045E00023FB732D
:1002C00042E07B79012B0AD1234BDB68BA7901210B
:1002D00001FA02F21146204A0B43D36034E07B79E5
:1002E000002B0BD11C4BDB68BA79012101FA02F219
:1002F000D2431146184A0B40D36025E00023FB731C
:1003000022E07B79012B0AD1144BDB68BA790121F9
:1003100001FA02F21146114A0B43D36014E07B79D3
:10032000002B0BD10D4BDB68BA79012101FA02F2E7
:10033000D2431146094A0B40D36005E00023FB730A
:1003400002E00023FB7300BFFB7B18461437BD4659
:1003500080BC704700080140000C014000100140C3
:1003600080B485B000AF0346FB710B46BB711346EA
:100370007B710223FB73BB79032B38D0032B4FDC3B
:10038000012B02D0022B19D04AE0FB79002B07D1B8
:100390007B794FF0113202FB03F2254B1A6041E0EA
:1003A000FB79012B07D17B794FF0113202FB03F26D
:1003B0001F4B5A6036E00023FB7333E0FB79002BC0
:1003C00007D17B794FF0113202FB03F2194B1A600F
:1003D00028E0FB79012B07D17B794FF0113202FB2A
:1003E00003F2144B5A601DE00023FB731AE0FB7903
:1003F000002B07D17B794FF0113202FB03F20E4B39
:100400001A600FE0FB79012B07D17B794FF0113295
:1004100002FB03F2084B5A6004E00023FB7301E087
:100420000023FB73FB7B18461437BD4680BC704726
:1004300000080140000C01400010014080B485B06C
:1004400000AF0346FB710B46BB7113467B71022361
:10045000FB73BB79032B00F08880032B00F3C5806E
:10046000012B02D0022B40D0BFE07B79012B09D1B8
:10047000FB79002B06D1614BDB68604A43F0FF0338
:10048000D36031E07B79012B09D1FB79012B06D1B7
:100490005A4BDB68594A43F47F43D36024E07B79AD
:1004A000002B0DD1FB79002B0AD1544BDB68534A4A
:1004B00023F0FF03D360514B504ADB68D36013E055
:1004C0007B79002B0DD1FB79012B0AD14B4BDB68DB
:1004D0004A4A23F47F43D360484B484ADB68D360E1
:1004E00002E00023FB7383E082E07B79012B09D1DA
:1004F000FB79002B06D1424BDB68414A43F0FF03F6
:10050000D36031E07B79012B09D1FB79012B06D136
:100510003B4BDB683A4A43F47F43D36024E07B796A
:10052000002B0DD1FB79002B0AD1354BDB68344A07
:1005300023F0FF03D360324B314ADB68D36013E012
:100540007B79002B0DD1FB79012B0AD12C4BDB6879
:100550002B4A23F47F43D360294B294ADB68D360BD
:1005600002E00023FB7343E042E07B79012B09D1D9
:10057000FB79002B06D1234BDB68224A43F0FF03B3
:10058000D36031E07B79012B09D1FB79012B06D1B6
:100590001C4BDB681B4A43F47F43D36024E07B7928
:1005A000002B0DD1FB79002B0AD1164BDB68154AC5
:1005B00023F0FF03D360134B124ADB68D36013E0D0
:1005C0007B79002B0DD1FB79012B0AD10D4BDB6818
:1005D0000C4A23F47F43D3600A4B0A4ADB68D3609A
:1005E00002E00023FB7303E002E00023FB7300BF83
:1005F000FB7B18461437BD4680BC7047000801409D
:10060000000C01400010014080B400AF1B4B1B6880
:100610001A4A43F00103136000BF184B1B685B08C4
:1006200003F00103002BF8D0144B5B68134A23F04E
:1006300001035360114B5B68104A23F0F0035360D1
:100640000E4B0E4A5B6853600C4B5B680B4A23F4FD
:10065000E0635360094B094A5B685360074B5B6872
:10066000064A23F460535360044B044A5B685360AA
:1006700002231846BD4680BC704700BF00100240F0
:1006800080B485B000AF0346FB710223FB73FB7996
:100690001F2B0AD81A4B5B69FA79012101FA02F281
:1006A0001146174A0B43536123E0FB793F2B0DD8CA
:1006B000FB79203BFB71124BDB69FA79012101FACE
:1006C00002F211460E4A0B43D36112E0FB795F2B15
:1006D0000DD8FB79403BFB71094B9B69FA790121ED
:1006E00001FA02F21146064A0B43936101E000232E
:1006F000FB73FB7B18461437BD4680BC704700BFB8
:100700000010024080B485B000AF7860134B1B68C6
:100710001B0CDBB203F00103FB73104A7B685360D0
:100720000E4B1B680D4A43F00103136000BF0B4BD7
:100730001B681B0C03F00103002BF8D0074B1B6850
:10074000064A23F001031360044B00229A6002233F
:1007500018461437BD4680BC704700BF10E000E06B
:1007600080B582B000AF0023FB71134B1B78012BC7
:100770000ED1124B1B68114A23F0020313600F4B7A
:100780001B680E4A23F0010313600C4B00229A6091
:100790000B4B1B68002B02D0094B1B689847074B7B
:1007A0001B681B0CDBB203F00103DBB2FB7100BF63
:1007B0000837BD4680BD00BF5000002010E000E0BB
:1007C0004C00002080B582B000AFFFF71DFF422033
:1007D000FFF756FF4320FFF753FFFFF7C9FC002345
:1007E000FB710AE0FB79DB00064A1344322118460C
:1007F000FFF7F8FCFB790133FB71FB79052BF1D98D
:10080000EDE700BF000000200D488546AFF30080F3
:100810000C480D490D4A002302E0D458C45004335B
:10082000C4188C42F9D30A4A0A4C002301E0136031
:100830000432A242FBD300F011F8FFF7C3FFFEE73A
:10084000005000200000002030000020C4080008F4
:100850003000002054000020FEE7000070B50026A4
:100860000C4D0D4C641BA410A64209D100F01AF8DF
:1008700000260A4D0A4C641BA410A64205D170BD87
:1008800055F8043B98470136EEE755F8043B984786
:100890000136F2E7BC080008BC080008BC080008E4
:1008A000C0080008F8B500BFF8BC08BC9E467047F9
:0C08B000F8B500BFF8BC08BC9E467047BD
:0408BC0055010008DA
:0408C00031010008FA
:1008C400002424243C242400002424243C24180050
:1008D40000001C201804380000001C2018043800F4
:1008E400002424243C241800000024342C24000078
:0400000508000809DE
:00000001FF
