:020000040800F2
:1000000000500020C5090008150A0008150A00085C
:10001000150A0008150A0008150A0008000000006B
:10002000000000000000000000000000150A0008A9
:10003000150A000800000000150A0008150A00084B
:10004000150A0008150A0008150A0008150A000814
:10005000150A0008150A0008BD030008D9030008A6
:10006000F5030008110400082D040008150A000813
:10007000150A0008150A0008150A0008150A0008E4
:10008000150A0008150A0008150A0008150A0008D4
:10009000150A0008150A0008150A00084904000896
:1000A000150A0008150A0008150A0008150A0008B4
:1000B000150A0008150A0008150A0008150A0008A4
:1000C000150A0008150A0008150A0008150A000894
:1000D000150A0008150A0008150A0008150A000884
:1000E000A5040008150A000800000000150A000811
:1000F000150A0008150A0008150A0008150A000864
:10010000150A0008150A0008150A0008150A000853
:10011000150A0008150A0008150A0008150A000843
:10012000150A0008150A0008150A0008150A000833
:1001300010B5054C237833B9044B13B10448AFF321
:1001400000800123237010BD080000200000000083
:10015000600A000808B5034B1BB103490348AFF31D
:10016000008008BD000000000C000020600A0008AC
:1001700080B582B000AF03460A46FB711346BB71DF
:10018000B979FB790222184600F0C2F90223184619
:100190000837BD4680BD80B582B000AF03460A4631
:1001A000FB711346BB71B979FB790122184600F047
:1001B00089FA022318460837BD4680BD80B582B053
:1001C00000AF03460A46FB711346BB71B979FB7950
:1001D0000022184600F076FA022318460837BD467A
:1001E00080BD80B584B000AF78600223FB737B686C
:1001F0001B78002B18D07B681B78032B14D87B68E6
:1002000018787B685B780822194600F081F97B68D2
:100210009B78002B0AD17B6818787B685B78012279
:10022000194600F04FFA01E00023FB73FB7B1846F0
:100230001037BD4680BD000080B400AF084B9B68FE
:10024000074A43F001039360054B1B68044A43F0DF
:100250000103136002231846BD4680BC704700BFEF
:100260000004014080B485B000AF0346FB71022357
:10027000FB73FB790F2B0AD8094B1B68FA79012114
:1002800001FA02F21146064A0B43136001E0002313
:10029000FB73FB7B18461437BD4680BC704700BF1C
:1002A0000004014080B485B000AF03463960FB71A3
:1002B0000223FB733B68002B02D10123FB7304E094
:1002C000FB7905493A6841F82320FB7B184614372F
:1002D000BD4680BC704700BF2400002080B485B0BC
:1002E00000AF0346FB710223FB73FB790F2B0AD887
:1002F000094B5B69FA79012101FA02F21146064ABB
:100300000B43536101E00023FB73FB7B184614375A
:10031000BD4680BC704700BF0004014080B485B07A
:1003200000AF03460A46FB711346BB710223FB7301
:10033000FB790F2B37D8BB79032B1CD0032B2FDC79
:10034000012B02D0022B0BD02AE01B4B9B68FA79C1
:10035000012101FA02F21146174A0B43936024E08F
:10036000154BDB68FA79012101FA02F21146124AB3
:100370000B43D36019E0104B9B68FA79012101FA15
:1003800002F211460C4A0B4393600B4BDB68FA797F
:10039000012101FA02F21146074A0B43D36004E03F
:1003A0000023FB7301E00023FB73FB7B184614372B
:1003B000BD4680BC704700BF0004014080B500AF5F
:1003C000044B1B68002B02D0024B1B68984700BFF0
:1003D00080BD00BF2400002080B500AF044B5B68E7
:1003E000002B02D0024B5B68984700BF80BD00BF66
:1003F0002400002080B500AF044B9B68002B02D086
:10040000024B9B68984700BF80BD00BF24000020BE
:1004100080B500AF044BDB68002B02D0024BDB68D9
:10042000984700BF80BD00BF2400002080B500AF0A
:10043000044B1B69002B02D0024B1B69984700BF7D
:1004400080BD00BF2400002080B500AF144B5B6965
:10045000002B03D0124B5B6998471EE0104B9B6941
:10046000002B03D00E4B9B69984716E00C4BDB69C1
:10047000002B03D00A4BDB6998470EE0084B1B6A40
:10048000002B03D0064B1B6A984706E0044B5B6ABF
:10049000002B02D0024B5B6A984700BF80BD00BFB3
:1004A0002400002080B500AF184B9B6A002B03D0BE
:1004B000164B9B6A984726E0144BDB6A002B03D04F
:1004C000124BDB6A98471EE0104B1B6B002B03D0CE
:1004D0000E4B1B6B984716E00C4B5B6B002B03D04D
:1004E0000A4B5B6B98470EE0084B9B6B002B03D0CD
:1004F000064B9B6B984706E0044BDB6B002B02D04E
:10050000024BDB6B984700BF80BD00BF240000207A
:1005100080B485B000AF0346FB710B46BB71134638
:100520007B710223FB73FB79032B7FD0032B00F33A
:10053000B980012B02D0022B3CD0B3E0BB79072B52
:1005400017D85D4B1B68BA7992000F2101FA02F2AD
:10055000D2431146584A0B401360574B1B687979B8
:10056000BA79920001FA02F21146534A0B43136022
:100570009BE0BB790F2B1AD8BB79083BBB714E4B64
:100580005B68BA7992000F2101FA02F2D243114658
:10059000494A0B405360484B5B687979BA799200BD
:1005A00001FA02F21146444A0B4353607DE00023F6
:1005B000FB737AE0BB79072B17D8404B1B68BA79DD
:1005C00092006FF00F0101FA02F211463B4A0B4014
:1005D00013603A4B1B687979BA79920001FA02F2FA
:1005E0001146364A0B4313605FE0BB790F2B1AD8D4
:1005F000BB79083BBB71314B5B68BA7992006FF0F5
:100600000F0101FA02F211462C4A0B4053602B4BAA
:100610005B687979BA79920001FA02F21146274AA9
:100620000B43536041E00023FB733EE0BB79072B93
:1006300017D8234B1B68BA7992000F2101FA02F2F6
:10064000D24311461E4A0B4013601D4B1B6879793B
:10065000BA79920001FA02F21146194A0B4313606B
:1006600023E0BB790F2B1AD8BB79083BBB71144B25
:100670005B68BA7992006FF00F0101FA02F211463D
:100680000F4A0B4053600E4B5B687979BA79920040
:1006900001FA02F211460A4A0B43536005E00023B7
:1006A000FB7302E00023FB7300BFFB7B184614378B
:1006B000BD4680BC704700BF00080140000C0140EF
:1006C0000010014080B485B000AF0346FB710B46BB
:1006D000BB7113467B710223FB73FB79032B46D05E
:1006E000032B64DC012B02D0022B20D05FE07B794E
:1006F000012B0AD1324BDB68BA79012101FA02F2EF
:1007000011462F4A0B43D36054E07B79002B0BD169
:100710002B4BDB68BA79012101FA02F2D243114670
:10072000274A0B40D36045E00023FB7342E07B790E
:10073000012B0AD1234BDB68BA79012101FA02F2BD
:100740001146204A0B43D36034E07B79002B0BD158
:100750001C4BDB68BA79012101FA02F2D24311463F
:10076000184A0B40D36025E00023FB7322E07B791D
:10077000012B0AD1144BDB68BA79012101FA02F28C
:100780001146114A0B43D36014E07B79002B0BD147
:100790000D4BDB68BA79012101FA02F2D24311460E
:1007A000094A0B40D36005E00023FB7302E00023FD
:1007B000FB7300BFFB7B18461437BD4680BC7047F7
:1007C00000080140000C01400010014080B400AF5F
:1007D000034B044A1A6002231846BD4680BC70478A
:1007E0000CED00E00006FA0580B485B000AF0346CA
:1007F000FB710223FB73FB791F2B05D8FB790122C8
:100800009A400B4B1A600DE0FB793F2B08D8FB791F
:10081000203BFB71FB7901229A40054B5A6001E0B5
:100820000023FB73FB7B18461437BD4680BC704722
:1008300000E100E080B400AF1B4B1B681A4A43F094
:100840000103136000BF184B1B685B0803F0010332
:10085000002BF8D0144B5B68134A23F0010353605C
:10086000114B5B68104A23F0F00353600E4B0E4AA5
:100870005B6853600C4B5B680B4A23F4E063536086
:10088000094B094A5B685360074B5B68064A23F4CF
:1008900060535360044B044A5B685360022318465C
:1008A000BD4680BC704700BF0010024080B485B0D8
:1008B00000AF0346FB710223FB73FB791F2B0AD8A1
:1008C0001A4B5B69FA79012101FA02F21146174AC3
:1008D0000B43536123E0FB793F2B0DD8FB79203B81
:1008E000FB71124BDB69FA79012101FA02F2114620
:1008F0000E4A0B43D36112E0FB795F2B0DD8FB79D5
:10090000403BFB71094B9B69FA79012101FA02F224
:100910001146064A0B43936101E00023FB73FB7B06
:1009200018461437BD4680BC704700BF0010024017
:1009300080B500AFFFF77EFF4220FFF7B7FF03212E
:100940000120FFF715FC1048FFF74BFC0F48FFF79D
:1009500048FC0F490020FFF7A5FC0E490120FFF7D6
:10096000A1FCFFF733FF0620FFF73EFF0720FFF74C
:100970003BFFFFF761FC0120FFF774FC0121012020
:10098000FFF7CCFCFEE700BF0000002004000020C1
:1009900099090008AF09000880B500AF03210120C4
:1009A000FFF7F9FB0020FFF799FC00BF80BD80B581
:1009B00000AF03210120FFF701FC0120FFF78EFCAF
:1009C00000BF80BD0D488546AFF300800C480D493F
:1009D0000D4A002302E0D458C4500433C4188C429A
:1009E000F9D30A4A0A4C002301E013600432A24200
:1009F000FBD300F011F8FFF79BFFFEE7005000204B
:100A00000000002008000020800A000808000020E4
:100A100064000020FEE7000070B500260C4D0D4C70
:100A2000641BA410A64209D100F01AF800260A4D52
:100A30000A4C641BA410A64205D170BD55F8043BB6
:100A400098470136EEE755F8043B98470136F2E740
:100A5000780A0008780A0008780A00087C0A00086A
:100A6000F8B500BFF8BC08BC9E467047F8B500BF9B
:080A7000F8BC08BC9E4670476B
:040A7800550100081C
:040A7C00310100083C
:080A800001000000010100006B
:04000005080009C521
:00000001FF
